{
  "contractName": "Account",
  "abi": [
    {
      "inputs": [
        {
          "internalType": "address",
          "name": "_owner",
          "type": "address"
        },
        {
          "internalType": "string",
          "name": "_name",
          "type": "string"
        }
      ],
      "payable": false,
      "stateMutability": "nonpayable",
      "type": "constructor"
    },
    {
      "anonymous": false,
      "inputs": [
        {
          "indexed": false,
          "internalType": "address",
          "name": "creator",
          "type": "address"
        },
        {
          "indexed": false,
          "internalType": "contract Project",
          "name": "projectAddress",
          "type": "address"
        }
      ],
      "name": "NewProject",
      "type": "event"
    },
    {
      "constant": false,
      "inputs": [
        {
          "internalType": "contract Project",
          "name": "_project",
          "type": "address"
        }
      ],
      "name": "invest",
      "outputs": [
        {
          "internalType": "bool",
          "name": "",
          "type": "bool"
        }
      ],
      "payable": true,
      "stateMutability": "payable",
      "type": "function"
    },
    {
      "constant": false,
      "inputs": [
        {
          "internalType": "contract Project",
          "name": "_project",
          "type": "address"
        },
        {
          "internalType": "address payable",
          "name": "_recipient",
          "type": "address"
        },
        {
          "internalType": "string",
          "name": "_reason",
          "type": "string"
        },
        {
          "internalType": "uint256",
          "name": "_value",
          "type": "uint256"
        }
      ],
      "name": "initTransfer",
      "outputs": [
        {
          "internalType": "contract Transfer",
          "name": "",
          "type": "address"
        }
      ],
      "payable": false,
      "stateMutability": "nonpayable",
      "type": "function"
    },
    {
      "constant": false,
      "inputs": [
        {
          "internalType": "string",
          "name": "_name",
          "type": "string"
        },
        {
          "internalType": "string",
          "name": "_email",
          "type": "string"
        },
        {
          "internalType": "string",
          "name": "_description",
          "type": "string"
        },
        {
          "internalType": "string",
          "name": "_img",
          "type": "string"
        }
      ],
      "name": "createProject",
      "outputs": [
        {
          "internalType": "contract Project",
          "name": "",
          "type": "address"
        }
      ],
      "payable": false,
      "stateMutability": "nonpayable",
      "type": "function"
    },
    {
      "constant": false,
      "inputs": [
        {
          "internalType": "contract Transfer",
          "name": "_transfer",
          "type": "address"
        }
      ],
      "name": "voteAye",
      "outputs": [],
      "payable": false,
      "stateMutability": "nonpayable",
      "type": "function"
    },
    {
      "constant": false,
      "inputs": [
        {
          "internalType": "contract Transfer",
          "name": "_transfer",
          "type": "address"
        }
      ],
      "name": "voteNay",
      "outputs": [],
      "payable": false,
      "stateMutability": "nonpayable",
      "type": "function"
    },
    {
      "constant": false,
      "inputs": [
        {
          "internalType": "contract Transfer",
          "name": "_transfer",
          "type": "address"
        }
      ],
      "name": "removeVote",
      "outputs": [],
      "payable": false,
      "stateMutability": "nonpayable",
      "type": "function"
    },
    {
      "constant": false,
      "inputs": [
        {
          "internalType": "contract Transfer",
          "name": "_transfer",
          "type": "address"
        }
      ],
      "name": "checkVotes",
      "outputs": [],
      "payable": false,
      "stateMutability": "nonpayable",
      "type": "function"
    },
    {
      "constant": false,
      "inputs": [
        {
          "internalType": "contract Transfer",
          "name": "_transfer",
          "type": "address"
        }
      ],
      "name": "removeTransfer",
      "outputs": [],
      "payable": false,
      "stateMutability": "nonpayable",
      "type": "function"
    },
    {
      "constant": true,
      "inputs": [],
      "name": "getInvestedProjects",
      "outputs": [
        {
          "internalType": "contract Project[]",
          "name": "",
          "type": "address[]"
        }
      ],
      "payable": false,
      "stateMutability": "view",
      "type": "function"
    },
    {
      "constant": true,
      "inputs": [
        {
          "internalType": "address",
          "name": "_project",
          "type": "address"
        }
      ],
      "name": "getInvestedSum",
      "outputs": [
        {
          "internalType": "uint256",
          "name": "",
          "type": "uint256"
        }
      ],
      "payable": false,
      "stateMutability": "view",
      "type": "function"
    },
    {
      "constant": true,
      "inputs": [],
      "name": "getPersonalProjects",
      "outputs": [
        {
          "internalType": "contract Project[]",
          "name": "",
          "type": "address[]"
        }
      ],
      "payable": false,
      "stateMutability": "view",
      "type": "function"
    },
    {
      "constant": true,
      "inputs": [],
      "name": "getName",
      "outputs": [
        {
          "internalType": "string",
          "name": "",
          "type": "string"
        }
      ],
      "payable": false,
      "stateMutability": "view",
      "type": "function"
    },
    {
      "constant": false,
      "inputs": [
        {
          "internalType": "string",
          "name": "_name",
          "type": "string"
        }
      ],
      "name": "changeName",
      "outputs": [
        {
          "internalType": "string",
          "name": "",
          "type": "string"
        }
      ],
      "payable": false,
      "stateMutability": "nonpayable",
      "type": "function"
    }
  ],
  "bytecode": "0x60806040523480156200001157600080fd5b5060405162001d4f38038062001d4f833981810160405260408110156200003757600080fd5b8101908080519060200190929190805160405193929190846401000000008211156200006257600080fd5b838201915060208201858111156200007957600080fd5b82518660018202830111640100000000821117156200009757600080fd5b8083526020830192505050908051906020019080838360005b83811015620000cd578082015181840152602081019050620000b0565b50505050905090810190601f168015620000fb5780820380516001836020036101000a031916815260200191505b50604052505050336000806101000a81548173ffffffffffffffffffffffffffffffffffffffff021916908373ffffffffffffffffffffffffffffffffffffffff16021790555080600290805190602001906200015a929190620001a4565b5081600160006101000a81548173ffffffffffffffffffffffffffffffffffffffff021916908373ffffffffffffffffffffffffffffffffffffffff160217905550505062000253565b828054600181600116156101000203166002900490600052602060002090601f016020900481019282601f10620001e757805160ff191683800117855562000218565b8280016001018555821562000218579182015b8281111562000217578251825591602001919060010190620001fa565b5b5090506200022791906200022b565b5090565b6200025091905b808211156200024c57600081600090555060010162000232565b5090565b90565b611aec80620002636000396000f3fe6080604052600436106100c25760003560e01c8063941781d51161007f578063a26ac37511610059578063a26ac375146105f6578063a74c989b146108c3578063e994d2e21461092f578063fb9adbc914610994576100c2565b8063941781d5146103e75780639afe93c7146104535780639c4e67a8146104a4576100c2565b806303f9c793146100c757806317d7de7c146101235780633ccc1f53146101b35780635353a2d8146102045780635caea9cb1461034557806367ae87e614610396575b600080fd5b610109600480360360208110156100dd57600080fd5b81019080803573ffffffffffffffffffffffffffffffffffffffff1690602001909291905050506109e5565b604051808215151515815260200191505060405180910390f35b34801561012f57600080fd5b50610138610bf3565b6040518080602001828103825283818151815260200191508051906020019080838360005b8381101561017857808201518184015260208101905061015d565b50505050905090810190601f1680156101a55780820380516001836020036101000a031916815260200191505b509250505060405180910390f35b3480156101bf57600080fd5b50610202600480360360208110156101d657600080fd5b81019080803573ffffffffffffffffffffffffffffffffffffffff169060200190929190505050610c95565b005b34801561021057600080fd5b506102ca6004803603602081101561022757600080fd5b810190808035906020019064010000000081111561024457600080fd5b82018360208201111561025657600080fd5b8035906020019184600183028401116401000000008311171561027857600080fd5b91908080601f016020809104026020016040519081016040528093929190818152602001838380828437600081840152601f19601f820116905080830192505050505050509192919290505050610d9e565b6040518080602001828103825283818151815260200191508051906020019080838360005b8381101561030a5780820151818401526020810190506102ef565b50505050905090810190601f1680156103375780820380516001836020036101000a031916815260200191505b509250505060405180910390f35b34801561035157600080fd5b506103946004803603602081101561036857600080fd5b81019080803573ffffffffffffffffffffffffffffffffffffffff169060200190929190505050610e65565b005b3480156103a257600080fd5b506103e5600480360360208110156103b957600080fd5b81019080803573ffffffffffffffffffffffffffffffffffffffff169060200190929190505050610f6e565b005b3480156103f357600080fd5b506103fc611077565b6040518080602001828103825283818151815260200191508051906020019060200280838360005b8381101561043f578082015181840152602081019050610424565b505050509050019250505060405180910390f35b34801561045f57600080fd5b506104a26004803603602081101561047657600080fd5b81019080803573ffffffffffffffffffffffffffffffffffffffff169060200190929190505050611105565b005b3480156104b057600080fd5b506105b4600480360360808110156104c757600080fd5b81019080803573ffffffffffffffffffffffffffffffffffffffff169060200190929190803573ffffffffffffffffffffffffffffffffffffffff1690602001909291908035906020019064010000000081111561052457600080fd5b82018360208201111561053657600080fd5b8035906020019184600183028401116401000000008311171561055857600080fd5b91908080601f016020809104026020016040519081016040528093929190818152602001838380828437600081840152601f19601f8201169050808301925050505050505091929192908035906020019092919050505061120e565b604051808273ffffffffffffffffffffffffffffffffffffffff1673ffffffffffffffffffffffffffffffffffffffff16815260200191505060405180910390f35b34801561060257600080fd5b506108816004803603608081101561061957600080fd5b810190808035906020019064010000000081111561063657600080fd5b82018360208201111561064857600080fd5b8035906020019184600183028401116401000000008311171561066a57600080fd5b91908080601f016020809104026020016040519081016040528093929190818152602001838380828437600081840152601f19601f820116905080830192505050505050509192919290803590602001906401000000008111156106cd57600080fd5b8201836020820111156106df57600080fd5b8035906020019184600183028401116401000000008311171561070157600080fd5b91908080601f016020809104026020016040519081016040528093929190818152602001838380828437600081840152601f19601f8201169050808301925050505050505091929192908035906020019064010000000081111561076457600080fd5b82018360208201111561077657600080fd5b8035906020019184600183028401116401000000008311171561079857600080fd5b91908080601f016020809104026020016040519081016040528093929190818152602001838380828437600081840152601f19601f820116905080830192505050505050509192919290803590602001906401000000008111156107fb57600080fd5b82018360208201111561080d57600080fd5b8035906020019184600183028401116401000000008311171561082f57600080fd5b91908080601f016020809104026020016040519081016040528093929190818152602001838380828437600081840152601f19601f8201169050808301925050505050505091929192905050506113f5565b604051808273ffffffffffffffffffffffffffffffffffffffff1673ffffffffffffffffffffffffffffffffffffffff16815260200191505060405180910390f35b3480156108cf57600080fd5b506108d8611805565b6040518080602001828103825283818151815260200191508051906020019060200280838360005b8381101561091b578082015181840152602081019050610900565b505050509050019250505060405180910390f35b34801561093b57600080fd5b5061097e6004803603602081101561095257600080fd5b81019080803573ffffffffffffffffffffffffffffffffffffffff169060200190929190505050611893565b6040518082815260200191505060405180910390f35b3480156109a057600080fd5b506109e3600480360360208110156109b757600080fd5b81019080803573ffffffffffffffffffffffffffffffffffffffff1690602001909291905050506118dc565b005b6000600160009054906101000a900473ffffffffffffffffffffffffffffffffffffffff1673ffffffffffffffffffffffffffffffffffffffff163373ffffffffffffffffffffffffffffffffffffffff1614610a8d576040517f08c379a000000000000000000000000000000000000000000000000000000000815260040180806020018281038252602d815260200180611a8b602d913960400191505060405180910390fd5b8173ffffffffffffffffffffffffffffffffffffffff1663e8b5e51f346040518263ffffffff1660e01b81526004016000604051808303818588803b158015610ad557600080fd5b505af1158015610ae9573d6000803e3d6000fd5b50505050506000600360008473ffffffffffffffffffffffffffffffffffffffff1673ffffffffffffffffffffffffffffffffffffffff168152602001908152602001600020541415610b9d5760048290806001815401808255809150509060018203906000526020600020016000909192909190916101000a81548173ffffffffffffffffffffffffffffffffffffffff021916908373ffffffffffffffffffffffffffffffffffffffff160217905550505b34600360008473ffffffffffffffffffffffffffffffffffffffff1673ffffffffffffffffffffffffffffffffffffffff1681526020019081526020016000206000828254019250508190555060019050919050565b606060028054600181600116156101000203166002900480601f016020809104026020016040519081016040528092919081815260200182805460018160011615610100020316600290048015610c8b5780601f10610c6057610100808354040283529160200191610c8b565b820191906000526020600020905b815481529060010190602001808311610c6e57829003601f168201915b5050505050905090565b600160009054906101000a900473ffffffffffffffffffffffffffffffffffffffff1673ffffffffffffffffffffffffffffffffffffffff163373ffffffffffffffffffffffffffffffffffffffff1614610d3b576040517f08c379a000000000000000000000000000000000000000000000000000000000815260040180806020018281038252602d815260200180611a8b602d913960400191505060405180910390fd5b8073ffffffffffffffffffffffffffffffffffffffff166349aa4ee26040518163ffffffff1660e01b8152600401600060405180830381600087803b158015610d8357600080fd5b505af1158015610d97573d6000803e3d6000fd5b5050505050565b6060600160009054906101000a900473ffffffffffffffffffffffffffffffffffffffff1673ffffffffffffffffffffffffffffffffffffffff163373ffffffffffffffffffffffffffffffffffffffff1614610e46576040517f08c379a000000000000000000000000000000000000000000000000000000000815260040180806020018281038252602d815260200180611a8b602d913960400191505060405180910390fd5b8160029080519060200190610e5c9291906119e5565b50819050919050565b600160009054906101000a900473ffffffffffffffffffffffffffffffffffffffff1673ffffffffffffffffffffffffffffffffffffffff163373ffffffffffffffffffffffffffffffffffffffff1614610f0b576040517f08c379a000000000000000000000000000000000000000000000000000000000815260040180806020018281038252602d815260200180611a8b602d913960400191505060405180910390fd5b8073ffffffffffffffffffffffffffffffffffffffff1663730bd9296040518163ffffffff1660e01b8152600401600060405180830381600087803b158015610f5357600080fd5b505af1158015610f67573d6000803e3d6000fd5b5050505050565b600160009054906101000a900473ffffffffffffffffffffffffffffffffffffffff1673ffffffffffffffffffffffffffffffffffffffff163373ffffffffffffffffffffffffffffffffffffffff1614611014576040517f08c379a000000000000000000000000000000000000000000000000000000000815260040180806020018281038252602d815260200180611a8b602d913960400191505060405180910390fd5b8073ffffffffffffffffffffffffffffffffffffffff1663ea2fe1a26040518163ffffffff1660e01b8152600401600060405180830381600087803b15801561105c57600080fd5b505af1158015611070573d6000803e3d6000fd5b5050505050565b606060058054806020026020016040519081016040528092919081815260200182805480156110fb57602002820191906000526020600020905b8160009054906101000a900473ffffffffffffffffffffffffffffffffffffffff1673ffffffffffffffffffffffffffffffffffffffff16815260200190600101908083116110b1575b5050505050905090565b600160009054906101000a900473ffffffffffffffffffffffffffffffffffffffff1673ffffffffffffffffffffffffffffffffffffffff163373ffffffffffffffffffffffffffffffffffffffff16146111ab576040517f08c379a000000000000000000000000000000000000000000000000000000000815260040180806020018281038252602d815260200180611a8b602d913960400191505060405180910390fd5b8073ffffffffffffffffffffffffffffffffffffffff166383197ef06040518163ffffffff1660e01b8152600401600060405180830381600087803b1580156111f357600080fd5b505af1158015611207573d6000803e3d6000fd5b5050505050565b6000600160009054906101000a900473ffffffffffffffffffffffffffffffffffffffff1673ffffffffffffffffffffffffffffffffffffffff163373ffffffffffffffffffffffffffffffffffffffff16146112b6576040517f08c379a000000000000000000000000000000000000000000000000000000000815260040180806020018281038252602d815260200180611a8b602d913960400191505060405180910390fd5b60008573ffffffffffffffffffffffffffffffffffffffff1663995d2cc48686866040518463ffffffff1660e01b8152600401808473ffffffffffffffffffffffffffffffffffffffff1673ffffffffffffffffffffffffffffffffffffffff16815260200180602001838152602001828103825284818151815260200191508051906020019080838360005b8381101561135e578082015181840152602081019050611343565b50505050905090810190601f16801561138b5780820380516001836020036101000a031916815260200191505b50945050505050602060405180830381600087803b1580156113ac57600080fd5b505af11580156113c0573d6000803e3d6000fd5b505050506040513d60208110156113d657600080fd5b8101908080519060200190929190505050905080915050949350505050565b6000600160009054906101000a900473ffffffffffffffffffffffffffffffffffffffff1673ffffffffffffffffffffffffffffffffffffffff163373ffffffffffffffffffffffffffffffffffffffff161461149d576040517f08c379a000000000000000000000000000000000000000000000000000000000815260040180806020018281038252602d815260200180611a8b602d913960400191505060405180910390fd5b60008060009054906101000a900473ffffffffffffffffffffffffffffffffffffffff1673ffffffffffffffffffffffffffffffffffffffff1663a26ac375878787876040518563ffffffff1660e01b81526004018080602001806020018060200180602001858103855289818151815260200191508051906020019080838360005b8381101561153b578082015181840152602081019050611520565b50505050905090810190601f1680156115685780820380516001836020036101000a031916815260200191505b50858103845288818151815260200191508051906020019080838360005b838110156115a1578082015181840152602081019050611586565b50505050905090810190601f1680156115ce5780820380516001836020036101000a031916815260200191505b50858103835287818151815260200191508051906020019080838360005b838110156116075780820151818401526020810190506115ec565b50505050905090810190601f1680156116345780820380516001836020036101000a031916815260200191505b50858103825286818151815260200191508051906020019080838360005b8381101561166d578082015181840152602081019050611652565b50505050905090810190601f16801561169a5780820380516001836020036101000a031916815260200191505b5098505050505050505050602060405180830381600087803b1580156116bf57600080fd5b505af11580156116d3573d6000803e3d6000fd5b505050506040513d60208110156116e957600080fd5b8101908080519060200190929190505050905060058190806001815401808255809150509060018203906000526020600020016000909192909190916101000a81548173ffffffffffffffffffffffffffffffffffffffff021916908373ffffffffffffffffffffffffffffffffffffffff160217905550507fbb766b38574b4b06dacd1d1436133856d5f955e912882638c674397fa5a21ae13082604051808373ffffffffffffffffffffffffffffffffffffffff1673ffffffffffffffffffffffffffffffffffffffff1681526020018273ffffffffffffffffffffffffffffffffffffffff1673ffffffffffffffffffffffffffffffffffffffff1681526020019250505060405180910390a180915050949350505050565b6060600480548060200260200160405190810160405280929190818152602001828054801561188957602002820191906000526020600020905b8160009054906101000a900473ffffffffffffffffffffffffffffffffffffffff1673ffffffffffffffffffffffffffffffffffffffff168152602001906001019080831161183f575b5050505050905090565b6000600360008373ffffffffffffffffffffffffffffffffffffffff1673ffffffffffffffffffffffffffffffffffffffff168152602001908152602001600020549050919050565b600160009054906101000a900473ffffffffffffffffffffffffffffffffffffffff1673ffffffffffffffffffffffffffffffffffffffff163373ffffffffffffffffffffffffffffffffffffffff1614611982576040517f08c379a000000000000000000000000000000000000000000000000000000000815260040180806020018281038252602d815260200180611a8b602d913960400191505060405180910390fd5b8073ffffffffffffffffffffffffffffffffffffffff1663fc0f58ad6040518163ffffffff1660e01b8152600401600060405180830381600087803b1580156119ca57600080fd5b505af11580156119de573d6000803e3d6000fd5b5050505050565b828054600181600116156101000203166002900490600052602060002090601f016020900481019282601f10611a2657805160ff1916838001178555611a54565b82800160010185558215611a54579182015b82811115611a53578251825591602001919060010190611a38565b5b509050611a619190611a65565b5090565b611a8791905b80821115611a83576000816000905550600101611a6b565b5090565b9056fe4f6e6c7920746865206163636f756e74206f776e65722063616e2063616c6c20746869732066756e6374696f6ea265627a7a723158206d50a7d6943ebec53ca6fae8d0e0131972fee84b336ac9beeb62ec192948263e64736f6c63430005100032",
  "source": "// SPDX-License-Identifier: AFL-1.1\npragma solidity ^0.5.16;\n\nimport \"./Project.sol\";\nimport \"./Governor.sol\";\nimport \"./Transfer.sol\";\n\ncontract Account {\n\n    // Governor owner\n    Governor private governor;\n    address private owner;\n    string private name;\n\n    // list of all active contracts\n    mapping(address => uint) investments;\n    Project[] private investedProjects;\n    Project[] private personalProjects;\n\n    event NewProject(address creator, Project projectAddress);\n\n    constructor (address _owner, string memory _name) public {\n        governor = Governor(msg.sender);\n        name = _name;\n        owner = _owner;\n    }\n\n    modifier onlyGovernor {\n        require(msg.sender == address(governor), \"Only the governor is allowed to call this function\");\n        _;\n    }\n\n    modifier onlyOwner {\n        require(msg.sender == owner, \"Only the account owner can call this function\");\n        _;\n    }\n\n    function invest(Project _project) external payable onlyOwner returns(bool) {\n        _project.invest.value(msg.value)();\n        if(investments[address(_project)] == 0) {\n            investedProjects.push(_project);\n        }\n\n        investments[address(_project)] += msg.value;\n        return true;\n    }\n\n    function initTransfer(Project _project, address payable _recipient, string memory _reason, uint _value) public onlyOwner returns(Transfer) {\n        Transfer t = _project.initTransfer(_recipient, _reason, _value);\n        return t;\n    }\n\n    function createProject(\n        string memory _name,\n        string memory _email,\n        string memory _description, \n        string memory _img\n        ) public onlyOwner returns(Project) {\n        Project p = governor.createProject(_name, _email, _description, _img);\n        personalProjects.push(p);\n\n        emit NewProject(address(this), p);\n        return p;\n    }\n\n    function voteAye(Transfer _transfer) public onlyOwner {\n        _transfer.aye();\n    }\n\n    function voteNay(Transfer _transfer) public onlyOwner {\n        _transfer.nay();\n    }\n\n    function removeVote(Transfer _transfer) public onlyOwner {\n        _transfer.removeVote();\n    }\n\n    function checkVotes(Transfer _transfer) public onlyOwner {\n        _transfer.checkVotes();\n    }\n\n    function removeTransfer(Transfer _transfer) public onlyOwner {\n        _transfer.destroy();\n    }\n\n    function getInvestedProjects() public view returns(Project[] memory) {\n        return investedProjects;\n    }\n\n    function getInvestedSum(address _project) public view returns(uint) {\n        return investments[_project];\n    }\n\n    function getPersonalProjects() public view returns(Project[] memory) {\n        return personalProjects;\n    }\n\n    function getName() public view returns(string memory) {\n        return name;\n    }\n\n    function changeName(string memory _name) public onlyOwner returns(string memory) {\n        name = _name;\n        return _name;\n    }\n}",
  "sourcePath": "/Users/braduveronik/Movies/untitled folder/crawler_py/blockchain_license_thesis/KickInvest/blockchain/contracts/contracts/Account.sol",
  "compiler": {
    "name": "solc",
    "version": "0.5.16+commit.9c3226ce.Emscripten.clang"
  },
  "schemaVersion": "3.0.23",
  "updatedAt": "2020-07-18T17:52:57.658Z",
  "devdoc": {
    "methods": {}
  },
  "userdoc": {
    "methods": {}
  }
}