{
  "contractName": "Governor",
  "abi": [
    {
      "inputs": [],
      "payable": false,
      "stateMutability": "nonpayable",
      "type": "constructor"
    },
    {
      "anonymous": false,
      "inputs": [
        {
          "indexed": false,
          "internalType": "address",
          "name": "creator",
          "type": "address"
        },
        {
          "indexed": false,
          "internalType": "contract Account",
          "name": "accountAddress",
          "type": "address"
        }
      ],
      "name": "NewAccount",
      "type": "event"
    },
    {
      "anonymous": false,
      "inputs": [
        {
          "indexed": false,
          "internalType": "address",
          "name": "creator",
          "type": "address"
        },
        {
          "indexed": false,
          "internalType": "contract Project",
          "name": "projectAddress",
          "type": "address"
        }
      ],
      "name": "NewProject",
      "type": "event"
    },
    {
      "constant": true,
      "inputs": [],
      "name": "owner",
      "outputs": [
        {
          "internalType": "address",
          "name": "",
          "type": "address"
        }
      ],
      "payable": false,
      "stateMutability": "view",
      "type": "function"
    },
    {
      "constant": true,
      "inputs": [
        {
          "internalType": "uint256",
          "name": "",
          "type": "uint256"
        }
      ],
      "name": "projectList",
      "outputs": [
        {
          "internalType": "contract Project",
          "name": "",
          "type": "address"
        }
      ],
      "payable": false,
      "stateMutability": "view",
      "type": "function"
    },
    {
      "constant": false,
      "inputs": [
        {
          "internalType": "string",
          "name": "_name",
          "type": "string"
        },
        {
          "internalType": "string",
          "name": "_email",
          "type": "string"
        },
        {
          "internalType": "string",
          "name": "_description",
          "type": "string"
        },
        {
          "internalType": "string",
          "name": "_img",
          "type": "string"
        }
      ],
      "name": "createProject",
      "outputs": [
        {
          "internalType": "contract Project",
          "name": "",
          "type": "address"
        }
      ],
      "payable": false,
      "stateMutability": "nonpayable",
      "type": "function"
    },
    {
      "constant": false,
      "inputs": [
        {
          "internalType": "string",
          "name": "_name",
          "type": "string"
        }
      ],
      "name": "createAccount",
      "outputs": [
        {
          "internalType": "contract Account",
          "name": "",
          "type": "address"
        }
      ],
      "payable": false,
      "stateMutability": "nonpayable",
      "type": "function"
    },
    {
      "constant": true,
      "inputs": [],
      "name": "getProjects",
      "outputs": [
        {
          "internalType": "contract Project[]",
          "name": "",
          "type": "address[]"
        }
      ],
      "payable": false,
      "stateMutability": "view",
      "type": "function"
    },
    {
      "constant": true,
      "inputs": [
        {
          "internalType": "address",
          "name": "_address",
          "type": "address"
        }
      ],
      "name": "getAccount",
      "outputs": [
        {
          "internalType": "contract Account",
          "name": "",
          "type": "address"
        }
      ],
      "payable": false,
      "stateMutability": "view",
      "type": "function"
    }
  ],
  "bytecode": "0x608060405234801561001057600080fd5b50336000806101000a81548173ffffffffffffffffffffffffffffffffffffffff021916908373ffffffffffffffffffffffffffffffffffffffff160217905550615844806100606000396000f3fe60806040523480156200001157600080fd5b50600436106200006a5760003560e01c8063298daf5b146200006f57806360570b2e14620001705780638da5cb5b14620001e1578063a26ac375146200022d578063dcc6012814620004fc578063fbcbc0f1146200055f575b600080fd5b6200012e600480360360208110156200008757600080fd5b8101908080359060200190640100000000811115620000a557600080fd5b820183602082011115620000b857600080fd5b80359060200191846001830284011164010000000083111715620000db57600080fd5b91908080601f016020809104026020016040519081016040528093929190818152602001838380828437600081840152601f19601f820116905080830192505050505050509192919290505050620005e6565b604051808273ffffffffffffffffffffffffffffffffffffffff1673ffffffffffffffffffffffffffffffffffffffff16815260200191505060405180910390f35b6200019f600480360360208110156200018857600080fd5b8101908080359060200190929190505050620007dc565b604051808273ffffffffffffffffffffffffffffffffffffffff1673ffffffffffffffffffffffffffffffffffffffff16815260200191505060405180910390f35b620001eb62000819565b604051808273ffffffffffffffffffffffffffffffffffffffff1673ffffffffffffffffffffffffffffffffffffffff16815260200191505060405180910390f35b620004ba600480360360808110156200024557600080fd5b81019080803590602001906401000000008111156200026357600080fd5b8201836020820111156200027657600080fd5b803590602001918460018302840111640100000000831117156200029957600080fd5b91908080601f016020809104026020016040519081016040528093929190818152602001838380828437600081840152601f19601f82011690508083019250505050505050919291929080359060200190640100000000811115620002fd57600080fd5b8201836020820111156200031057600080fd5b803590602001918460018302840111640100000000831117156200033357600080fd5b91908080601f016020809104026020016040519081016040528093929190818152602001838380828437600081840152601f19601f820116905080830192505050505050509192919290803590602001906401000000008111156200039757600080fd5b820183602082011115620003aa57600080fd5b80359060200191846001830284011164010000000083111715620003cd57600080fd5b91908080601f016020809104026020016040519081016040528093929190818152602001838380828437600081840152601f19601f820116905080830192505050505050509192919290803590602001906401000000008111156200043157600080fd5b8201836020820111156200044457600080fd5b803590602001918460018302840111640100000000831117156200046757600080fd5b91908080601f016020809104026020016040519081016040528093929190818152602001838380828437600081840152601f19601f8201169050808301925050505050505091929192905050506200083e565b604051808273ffffffffffffffffffffffffffffffffffffffff1673ffffffffffffffffffffffffffffffffffffffff16815260200191505060405180910390f35b6200050662000b6f565b6040518080602001828103825283818151815260200191508051906020019060200280838360005b838110156200054b5780820151818401526020810190506200052e565b505050509050019250505060405180910390f35b620005a4600480360360208110156200057757600080fd5b81019080803573ffffffffffffffffffffffffffffffffffffffff16906020019092919050505062000bff565b604051808273ffffffffffffffffffffffffffffffffffffffff1673ffffffffffffffffffffffffffffffffffffffff16815260200191505060405180910390f35b6000803383604051620005f99062000c68565b808373ffffffffffffffffffffffffffffffffffffffff1673ffffffffffffffffffffffffffffffffffffffff16815260200180602001828103825283818151815260200191508051906020019080838360005b838110156200066a5780820151818401526020810190506200064d565b50505050905090810190601f168015620006985780820380516001836020036101000a031916815260200191505b509350505050604051809103906000f080158015620006bb573d6000803e3d6000fd5b50905080600260003373ffffffffffffffffffffffffffffffffffffffff1673ffffffffffffffffffffffffffffffffffffffff16815260200190815260200160002060006101000a81548173ffffffffffffffffffffffffffffffffffffffff021916908373ffffffffffffffffffffffffffffffffffffffff1602179055507f14cb25cca821184a88389fa7823ef6a4cd65897a89cbdcf5169542b8d790478b3382604051808373ffffffffffffffffffffffffffffffffffffffff1673ffffffffffffffffffffffffffffffffffffffff1681526020018273ffffffffffffffffffffffffffffffffffffffff1673ffffffffffffffffffffffffffffffffffffffff1681526020019250505060405180910390a180915050919050565b60018181548110620007ea57fe5b906000526020600020016000915054906101000a900473ffffffffffffffffffffffffffffffffffffffff1681565b6000809054906101000a900473ffffffffffffffffffffffffffffffffffffffff1681565b6000803386868686604051620008549062000c76565b808673ffffffffffffffffffffffffffffffffffffffff1673ffffffffffffffffffffffffffffffffffffffff16815260200180602001806020018060200180602001858103855289818151815260200191508051906020019080838360005b83811015620008d1578082015181840152602081019050620008b4565b50505050905090810190601f168015620008ff5780820380516001836020036101000a031916815260200191505b50858103845288818151815260200191508051906020019080838360005b838110156200093a5780820151818401526020810190506200091d565b50505050905090810190601f168015620009685780820380516001836020036101000a031916815260200191505b50858103835287818151815260200191508051906020019080838360005b83811015620009a357808201518184015260208101905062000986565b50505050905090810190601f168015620009d15780820380516001836020036101000a031916815260200191505b50858103825286818151815260200191508051906020019080838360005b8381101562000a0c578082015181840152602081019050620009ef565b50505050905090810190601f16801562000a3a5780820380516001836020036101000a031916815260200191505b509950505050505050505050604051809103906000f08015801562000a63573d6000803e3d6000fd5b50905060018190806001815401808255809150509060018203906000526020600020016000909192909190916101000a81548173ffffffffffffffffffffffffffffffffffffffff021916908373ffffffffffffffffffffffffffffffffffffffff160217905550507fbb766b38574b4b06dacd1d1436133856d5f955e912882638c674397fa5a21ae13382604051808373ffffffffffffffffffffffffffffffffffffffff1673ffffffffffffffffffffffffffffffffffffffff1681526020018273ffffffffffffffffffffffffffffffffffffffff1673ffffffffffffffffffffffffffffffffffffffff1681526020019250505060405180910390a180915050949350505050565b6060600180548060200260200160405190810160405280929190818152602001828054801562000bf557602002820191906000526020600020905b8160009054906101000a900473ffffffffffffffffffffffffffffffffffffffff1673ffffffffffffffffffffffffffffffffffffffff168152602001906001019080831162000baa575b5050505050905090565b6000600260008373ffffffffffffffffffffffffffffffffffffffff1673ffffffffffffffffffffffffffffffffffffffff16815260200190815260200160002060009054906101000a900473ffffffffffffffffffffffffffffffffffffffff169050919050565b611d4f8062000c8583390190565b612e3c80620029d48339019056fe60806040523480156200001157600080fd5b5060405162001d4f38038062001d4f833981810160405260408110156200003757600080fd5b8101908080519060200190929190805160405193929190846401000000008211156200006257600080fd5b838201915060208201858111156200007957600080fd5b82518660018202830111640100000000821117156200009757600080fd5b8083526020830192505050908051906020019080838360005b83811015620000cd578082015181840152602081019050620000b0565b50505050905090810190601f168015620000fb5780820380516001836020036101000a031916815260200191505b50604052505050336000806101000a81548173ffffffffffffffffffffffffffffffffffffffff021916908373ffffffffffffffffffffffffffffffffffffffff16021790555080600290805190602001906200015a929190620001a4565b5081600160006101000a81548173ffffffffffffffffffffffffffffffffffffffff021916908373ffffffffffffffffffffffffffffffffffffffff160217905550505062000253565b828054600181600116156101000203166002900490600052602060002090601f016020900481019282601f10620001e757805160ff191683800117855562000218565b8280016001018555821562000218579182015b8281111562000217578251825591602001919060010190620001fa565b5b5090506200022791906200022b565b5090565b6200025091905b808211156200024c57600081600090555060010162000232565b5090565b90565b611aec80620002636000396000f3fe6080604052600436106100c25760003560e01c8063941781d51161007f578063a26ac37511610059578063a26ac375146105f6578063a74c989b146108c3578063e994d2e21461092f578063fb9adbc914610994576100c2565b8063941781d5146103e75780639afe93c7146104535780639c4e67a8146104a4576100c2565b806303f9c793146100c757806317d7de7c146101235780633ccc1f53146101b35780635353a2d8146102045780635caea9cb1461034557806367ae87e614610396575b600080fd5b610109600480360360208110156100dd57600080fd5b81019080803573ffffffffffffffffffffffffffffffffffffffff1690602001909291905050506109e5565b604051808215151515815260200191505060405180910390f35b34801561012f57600080fd5b50610138610bf3565b6040518080602001828103825283818151815260200191508051906020019080838360005b8381101561017857808201518184015260208101905061015d565b50505050905090810190601f1680156101a55780820380516001836020036101000a031916815260200191505b509250505060405180910390f35b3480156101bf57600080fd5b50610202600480360360208110156101d657600080fd5b81019080803573ffffffffffffffffffffffffffffffffffffffff169060200190929190505050610c95565b005b34801561021057600080fd5b506102ca6004803603602081101561022757600080fd5b810190808035906020019064010000000081111561024457600080fd5b82018360208201111561025657600080fd5b8035906020019184600183028401116401000000008311171561027857600080fd5b91908080601f016020809104026020016040519081016040528093929190818152602001838380828437600081840152601f19601f820116905080830192505050505050509192919290505050610d9e565b6040518080602001828103825283818151815260200191508051906020019080838360005b8381101561030a5780820151818401526020810190506102ef565b50505050905090810190601f1680156103375780820380516001836020036101000a031916815260200191505b509250505060405180910390f35b34801561035157600080fd5b506103946004803603602081101561036857600080fd5b81019080803573ffffffffffffffffffffffffffffffffffffffff169060200190929190505050610e65565b005b3480156103a257600080fd5b506103e5600480360360208110156103b957600080fd5b81019080803573ffffffffffffffffffffffffffffffffffffffff169060200190929190505050610f6e565b005b3480156103f357600080fd5b506103fc611077565b6040518080602001828103825283818151815260200191508051906020019060200280838360005b8381101561043f578082015181840152602081019050610424565b505050509050019250505060405180910390f35b34801561045f57600080fd5b506104a26004803603602081101561047657600080fd5b81019080803573ffffffffffffffffffffffffffffffffffffffff169060200190929190505050611105565b005b3480156104b057600080fd5b506105b4600480360360808110156104c757600080fd5b81019080803573ffffffffffffffffffffffffffffffffffffffff169060200190929190803573ffffffffffffffffffffffffffffffffffffffff1690602001909291908035906020019064010000000081111561052457600080fd5b82018360208201111561053657600080fd5b8035906020019184600183028401116401000000008311171561055857600080fd5b91908080601f016020809104026020016040519081016040528093929190818152602001838380828437600081840152601f19601f8201169050808301925050505050505091929192908035906020019092919050505061120e565b604051808273ffffffffffffffffffffffffffffffffffffffff1673ffffffffffffffffffffffffffffffffffffffff16815260200191505060405180910390f35b34801561060257600080fd5b506108816004803603608081101561061957600080fd5b810190808035906020019064010000000081111561063657600080fd5b82018360208201111561064857600080fd5b8035906020019184600183028401116401000000008311171561066a57600080fd5b91908080601f016020809104026020016040519081016040528093929190818152602001838380828437600081840152601f19601f820116905080830192505050505050509192919290803590602001906401000000008111156106cd57600080fd5b8201836020820111156106df57600080fd5b8035906020019184600183028401116401000000008311171561070157600080fd5b91908080601f016020809104026020016040519081016040528093929190818152602001838380828437600081840152601f19601f8201169050808301925050505050505091929192908035906020019064010000000081111561076457600080fd5b82018360208201111561077657600080fd5b8035906020019184600183028401116401000000008311171561079857600080fd5b91908080601f016020809104026020016040519081016040528093929190818152602001838380828437600081840152601f19601f820116905080830192505050505050509192919290803590602001906401000000008111156107fb57600080fd5b82018360208201111561080d57600080fd5b8035906020019184600183028401116401000000008311171561082f57600080fd5b91908080601f016020809104026020016040519081016040528093929190818152602001838380828437600081840152601f19601f8201169050808301925050505050505091929192905050506113f5565b604051808273ffffffffffffffffffffffffffffffffffffffff1673ffffffffffffffffffffffffffffffffffffffff16815260200191505060405180910390f35b3480156108cf57600080fd5b506108d8611805565b6040518080602001828103825283818151815260200191508051906020019060200280838360005b8381101561091b578082015181840152602081019050610900565b505050509050019250505060405180910390f35b34801561093b57600080fd5b5061097e6004803603602081101561095257600080fd5b81019080803573ffffffffffffffffffffffffffffffffffffffff169060200190929190505050611893565b6040518082815260200191505060405180910390f35b3480156109a057600080fd5b506109e3600480360360208110156109b757600080fd5b81019080803573ffffffffffffffffffffffffffffffffffffffff1690602001909291905050506118dc565b005b6000600160009054906101000a900473ffffffffffffffffffffffffffffffffffffffff1673ffffffffffffffffffffffffffffffffffffffff163373ffffffffffffffffffffffffffffffffffffffff1614610a8d576040517f08c379a000000000000000000000000000000000000000000000000000000000815260040180806020018281038252602d815260200180611a8b602d913960400191505060405180910390fd5b8173ffffffffffffffffffffffffffffffffffffffff1663e8b5e51f346040518263ffffffff1660e01b81526004016000604051808303818588803b158015610ad557600080fd5b505af1158015610ae9573d6000803e3d6000fd5b50505050506000600360008473ffffffffffffffffffffffffffffffffffffffff1673ffffffffffffffffffffffffffffffffffffffff168152602001908152602001600020541415610b9d5760048290806001815401808255809150509060018203906000526020600020016000909192909190916101000a81548173ffffffffffffffffffffffffffffffffffffffff021916908373ffffffffffffffffffffffffffffffffffffffff160217905550505b34600360008473ffffffffffffffffffffffffffffffffffffffff1673ffffffffffffffffffffffffffffffffffffffff1681526020019081526020016000206000828254019250508190555060019050919050565b606060028054600181600116156101000203166002900480601f016020809104026020016040519081016040528092919081815260200182805460018160011615610100020316600290048015610c8b5780601f10610c6057610100808354040283529160200191610c8b565b820191906000526020600020905b815481529060010190602001808311610c6e57829003601f168201915b5050505050905090565b600160009054906101000a900473ffffffffffffffffffffffffffffffffffffffff1673ffffffffffffffffffffffffffffffffffffffff163373ffffffffffffffffffffffffffffffffffffffff1614610d3b576040517f08c379a000000000000000000000000000000000000000000000000000000000815260040180806020018281038252602d815260200180611a8b602d913960400191505060405180910390fd5b8073ffffffffffffffffffffffffffffffffffffffff166349aa4ee26040518163ffffffff1660e01b8152600401600060405180830381600087803b158015610d8357600080fd5b505af1158015610d97573d6000803e3d6000fd5b5050505050565b6060600160009054906101000a900473ffffffffffffffffffffffffffffffffffffffff1673ffffffffffffffffffffffffffffffffffffffff163373ffffffffffffffffffffffffffffffffffffffff1614610e46576040517f08c379a000000000000000000000000000000000000000000000000000000000815260040180806020018281038252602d815260200180611a8b602d913960400191505060405180910390fd5b8160029080519060200190610e5c9291906119e5565b50819050919050565b600160009054906101000a900473ffffffffffffffffffffffffffffffffffffffff1673ffffffffffffffffffffffffffffffffffffffff163373ffffffffffffffffffffffffffffffffffffffff1614610f0b576040517f08c379a000000000000000000000000000000000000000000000000000000000815260040180806020018281038252602d815260200180611a8b602d913960400191505060405180910390fd5b8073ffffffffffffffffffffffffffffffffffffffff1663730bd9296040518163ffffffff1660e01b8152600401600060405180830381600087803b158015610f5357600080fd5b505af1158015610f67573d6000803e3d6000fd5b5050505050565b600160009054906101000a900473ffffffffffffffffffffffffffffffffffffffff1673ffffffffffffffffffffffffffffffffffffffff163373ffffffffffffffffffffffffffffffffffffffff1614611014576040517f08c379a000000000000000000000000000000000000000000000000000000000815260040180806020018281038252602d815260200180611a8b602d913960400191505060405180910390fd5b8073ffffffffffffffffffffffffffffffffffffffff1663ea2fe1a26040518163ffffffff1660e01b8152600401600060405180830381600087803b15801561105c57600080fd5b505af1158015611070573d6000803e3d6000fd5b5050505050565b606060058054806020026020016040519081016040528092919081815260200182805480156110fb57602002820191906000526020600020905b8160009054906101000a900473ffffffffffffffffffffffffffffffffffffffff1673ffffffffffffffffffffffffffffffffffffffff16815260200190600101908083116110b1575b5050505050905090565b600160009054906101000a900473ffffffffffffffffffffffffffffffffffffffff1673ffffffffffffffffffffffffffffffffffffffff163373ffffffffffffffffffffffffffffffffffffffff16146111ab576040517f08c379a000000000000000000000000000000000000000000000000000000000815260040180806020018281038252602d815260200180611a8b602d913960400191505060405180910390fd5b8073ffffffffffffffffffffffffffffffffffffffff166383197ef06040518163ffffffff1660e01b8152600401600060405180830381600087803b1580156111f357600080fd5b505af1158015611207573d6000803e3d6000fd5b5050505050565b6000600160009054906101000a900473ffffffffffffffffffffffffffffffffffffffff1673ffffffffffffffffffffffffffffffffffffffff163373ffffffffffffffffffffffffffffffffffffffff16146112b6576040517f08c379a000000000000000000000000000000000000000000000000000000000815260040180806020018281038252602d815260200180611a8b602d913960400191505060405180910390fd5b60008573ffffffffffffffffffffffffffffffffffffffff1663995d2cc48686866040518463ffffffff1660e01b8152600401808473ffffffffffffffffffffffffffffffffffffffff1673ffffffffffffffffffffffffffffffffffffffff16815260200180602001838152602001828103825284818151815260200191508051906020019080838360005b8381101561135e578082015181840152602081019050611343565b50505050905090810190601f16801561138b5780820380516001836020036101000a031916815260200191505b50945050505050602060405180830381600087803b1580156113ac57600080fd5b505af11580156113c0573d6000803e3d6000fd5b505050506040513d60208110156113d657600080fd5b8101908080519060200190929190505050905080915050949350505050565b6000600160009054906101000a900473ffffffffffffffffffffffffffffffffffffffff1673ffffffffffffffffffffffffffffffffffffffff163373ffffffffffffffffffffffffffffffffffffffff161461149d576040517f08c379a000000000000000000000000000000000000000000000000000000000815260040180806020018281038252602d815260200180611a8b602d913960400191505060405180910390fd5b60008060009054906101000a900473ffffffffffffffffffffffffffffffffffffffff1673ffffffffffffffffffffffffffffffffffffffff1663a26ac375878787876040518563ffffffff1660e01b81526004018080602001806020018060200180602001858103855289818151815260200191508051906020019080838360005b8381101561153b578082015181840152602081019050611520565b50505050905090810190601f1680156115685780820380516001836020036101000a031916815260200191505b50858103845288818151815260200191508051906020019080838360005b838110156115a1578082015181840152602081019050611586565b50505050905090810190601f1680156115ce5780820380516001836020036101000a031916815260200191505b50858103835287818151815260200191508051906020019080838360005b838110156116075780820151818401526020810190506115ec565b50505050905090810190601f1680156116345780820380516001836020036101000a031916815260200191505b50858103825286818151815260200191508051906020019080838360005b8381101561166d578082015181840152602081019050611652565b50505050905090810190601f16801561169a5780820380516001836020036101000a031916815260200191505b5098505050505050505050602060405180830381600087803b1580156116bf57600080fd5b505af11580156116d3573d6000803e3d6000fd5b505050506040513d60208110156116e957600080fd5b8101908080519060200190929190505050905060058190806001815401808255809150509060018203906000526020600020016000909192909190916101000a81548173ffffffffffffffffffffffffffffffffffffffff021916908373ffffffffffffffffffffffffffffffffffffffff160217905550507fbb766b38574b4b06dacd1d1436133856d5f955e912882638c674397fa5a21ae13082604051808373ffffffffffffffffffffffffffffffffffffffff1673ffffffffffffffffffffffffffffffffffffffff1681526020018273ffffffffffffffffffffffffffffffffffffffff1673ffffffffffffffffffffffffffffffffffffffff1681526020019250505060405180910390a180915050949350505050565b6060600480548060200260200160405190810160405280929190818152602001828054801561188957602002820191906000526020600020905b8160009054906101000a900473ffffffffffffffffffffffffffffffffffffffff1673ffffffffffffffffffffffffffffffffffffffff168152602001906001019080831161183f575b5050505050905090565b6000600360008373ffffffffffffffffffffffffffffffffffffffff1673ffffffffffffffffffffffffffffffffffffffff168152602001908152602001600020549050919050565b600160009054906101000a900473ffffffffffffffffffffffffffffffffffffffff1673ffffffffffffffffffffffffffffffffffffffff163373ffffffffffffffffffffffffffffffffffffffff1614611982576040517f08c379a000000000000000000000000000000000000000000000000000000000815260040180806020018281038252602d815260200180611a8b602d913960400191505060405180910390fd5b8073ffffffffffffffffffffffffffffffffffffffff1663fc0f58ad6040518163ffffffff1660e01b8152600401600060405180830381600087803b1580156119ca57600080fd5b505af11580156119de573d6000803e3d6000fd5b5050505050565b828054600181600116156101000203166002900490600052602060002090601f016020900481019282601f10611a2657805160ff1916838001178555611a54565b82800160010185558215611a54579182015b82811115611a53578251825591602001919060010190611a38565b5b509050611a619190611a65565b5090565b611a8791905b80821115611a83576000816000905550600101611a6b565b5090565b9056fe4f6e6c7920746865206163636f756e74206f776e65722063616e2063616c6c20746869732066756e6374696f6ea265627a7a723158206d50a7d6943ebec53ca6fae8d0e0131972fee84b336ac9beeb62ec192948263e64736f6c6343000510003260806040523480156200001157600080fd5b5060405162002e3c38038062002e3c833981810160405260a08110156200003757600080fd5b8101908080519060200190929190805160405193929190846401000000008211156200006257600080fd5b838201915060208201858111156200007957600080fd5b82518660018202830111640100000000821117156200009757600080fd5b8083526020830192505050908051906020019080838360005b83811015620000cd578082015181840152602081019050620000b0565b50505050905090810190601f168015620000fb5780820380516001836020036101000a031916815260200191505b50604052602001805160405193929190846401000000008211156200011f57600080fd5b838201915060208201858111156200013657600080fd5b82518660018202830111640100000000821117156200015457600080fd5b8083526020830192505050908051906020019080838360005b838110156200018a5780820151818401526020810190506200016d565b50505050905090810190601f168015620001b85780820380516001836020036101000a031916815260200191505b5060405260200180516040519392919084640100000000821115620001dc57600080fd5b83820191506020820185811115620001f357600080fd5b82518660018202830111640100000000821117156200021157600080fd5b8083526020830192505050908051906020019080838360005b83811015620002475780820151818401526020810190506200022a565b50505050905090810190601f168015620002755780820380516001836020036101000a031916815260200191505b50604052602001805160405193929190846401000000008211156200029957600080fd5b83820191506020820185811115620002b057600080fd5b8251866001820283011164010000000082111715620002ce57600080fd5b8083526020830192505050908051906020019080838360005b8381101562000304578082015181840152602081019050620002e7565b50505050905090810190601f168015620003325780820380516001836020036101000a031916815260200191505b50604052505050336000806101000a81548173ffffffffffffffffffffffffffffffffffffffff021916908373ffffffffffffffffffffffffffffffffffffffff16021790555084600160006101000a81548173ffffffffffffffffffffffffffffffffffffffff021916908373ffffffffffffffffffffffffffffffffffffffff1602179055508360029080519060200190620003d292919062000439565b508260039080519060200190620003eb92919062000439565b5081600590805190602001906200040492919062000439565b5080600490805190602001906200041d92919062000439565b50600060068190555060006007819055505050505050620004e8565b828054600181600116156101000203166002900490600052602060002090601f016020900481019282601f106200047c57805160ff1916838001178555620004ad565b82800160010185558215620004ad579182015b82811115620004ac5782518255916020019190600101906200048f565b5b509050620004bc9190620004c0565b5090565b620004e591905b80821115620004e1576000816000905550600101620004c7565b5090565b90565b61294480620004f86000396000f3fe608060405260043610620001165760003560e01c80637284e41611620000a3578063995d2cc4116200006d578063995d2cc41462000614578063a3e76c0f146200074d578063cee2a9cf1462000759578063e51c94fb14620007c6578063e8b5e51f14620007f45762000116565b80637284e416146200040f578063820e93f514620004a55780638da5cb5b146200053b5780639377d71114620005955762000116565b8063426bfd0011620000e5578063426bfd0014620002d6578063590e1ae3146200036c5780635dab242014620003785780636f7bc9be14620003a65762000116565b806306fdde03146200011b5780632f54bf6e14620001b15780632f65142c146200021e57806342188789146200028f575b600080fd5b3480156200012857600080fd5b506200013362000800565b6040518080602001828103825283818151815260200191508051906020019080838360005b838110156200017557808201518184015260208101905062000158565b50505050905090810190601f168015620001a35780820380516001836020036101000a031916815260200191505b509250505060405180910390f35b348015620001be57600080fd5b506200020460048036036020811015620001d757600080fd5b81019080803573ffffffffffffffffffffffffffffffffffffffff169060200190929190505050620008a2565b604051808215151515815260200191505060405180910390f35b3480156200022b57600080fd5b5062000236620008fc565b6040518080602001828103825283818151815260200191508051906020019060200280838360005b838110156200027b5780820151818401526020810190506200025e565b505050509050019250505060405180910390f35b620002d460048036036020811015620002a757600080fd5b81019080803573ffffffffffffffffffffffffffffffffffffffff1690602001909291905050506200098c565b005b348015620002e357600080fd5b50620002ee6200099a565b6040518080602001828103825283818151815260200191508051906020019080838360005b838110156200033057808201518184015260208101905062000313565b50505050905090810190601f1680156200035e5780820380516001836020036101000a031916815260200191505b509250505060405180910390f35b6200037662000a3c565b005b3480156200038557600080fd5b506200039062000a4e565b6040518082815260200191505060405180910390f35b348015620003b357600080fd5b50620003f960048036036020811015620003cc57600080fd5b81019080803573ffffffffffffffffffffffffffffffffffffffff16906020019092919050505062000a54565b6040518082815260200191505060405180910390f35b3480156200041c57600080fd5b506200042762000a6c565b6040518080602001828103825283818151815260200191508051906020019080838360005b83811015620004695780820151818401526020810190506200044c565b50505050905090810190601f168015620004975780820380516001836020036101000a031916815260200191505b509250505060405180910390f35b348015620004b257600080fd5b50620004bd62000b0e565b6040518080602001828103825283818151815260200191508051906020019080838360005b83811015620004ff578082015181840152602081019050620004e2565b50505050905090810190601f1680156200052d5780820380516001836020036101000a031916815260200191505b509250505060405180910390f35b3480156200054857600080fd5b506200055362000bb0565b604051808273ffffffffffffffffffffffffffffffffffffffff1673ffffffffffffffffffffffffffffffffffffffff16815260200191505060405180910390f35b348015620005a257600080fd5b50620005d260048036036020811015620005bb57600080fd5b810190808035906020019092919050505062000bd6565b604051808273ffffffffffffffffffffffffffffffffffffffff1673ffffffffffffffffffffffffffffffffffffffff16815260200191505060405180910390f35b3480156200062157600080fd5b506200070b600480360360608110156200063a57600080fd5b81019080803573ffffffffffffffffffffffffffffffffffffffff169060200190929190803590602001906401000000008111156200067857600080fd5b8201836020820111156200068b57600080fd5b80359060200191846001830284011164010000000083111715620006ae57600080fd5b91908080601f016020809104026020016040519081016040528093929190818152602001838380828437600081840152601f19601f8201169050808301925050505050505091929192908035906020019092919050505062000c13565b604051808273ffffffffffffffffffffffffffffffffffffffff1673ffffffffffffffffffffffffffffffffffffffff16815260200191505060405180910390f35b6200075762000fbc565b005b3480156200076657600080fd5b50620007ac600480360360208110156200077f57600080fd5b81019080803573ffffffffffffffffffffffffffffffffffffffff16906020019092919050505062000fce565b604051808215151515815260200191505060405180910390f35b348015620007d357600080fd5b50620007de62001029565b6040518082815260200191505060405180910390f35b620007fe62001033565b005b60028054600181600116156101000203166002900480601f0160208091040260200160405190810160405280929190818152602001828054600181600116156101000203166002900480156200089a5780601f106200086e576101008083540402835291602001916200089a565b820191906000526020600020905b8154815290600101906020018083116200087c57829003601f168201915b505050505081565b6000600160009054906101000a900473ffffffffffffffffffffffffffffffffffffffff1673ffffffffffffffffffffffffffffffffffffffff168273ffffffffffffffffffffffffffffffffffffffff16149050919050565b606060098054806020026020016040519081016040528092919081815260200182805480156200098257602002820191906000526020600020905b8160009054906101000a900473ffffffffffffffffffffffffffffffffffffffff1673ffffffffffffffffffffffffffffffffffffffff168152602001906001019080831162000937575b5050505050905090565b620009978162001040565b50565b60048054600181600116156101000203166002900480601f01602080910402602001604051908101604052809291908181526020018280546001816001161561010002031660029004801562000a345780601f1062000a085761010080835404028352916020019162000a34565b820191906000526020600020905b81548152906001019060200180831162000a1657829003601f168201915b505050505081565b34600660008282540192505081905550565b60065481565b60086020528060005260406000206000915090505481565b60058054600181600116156101000203166002900480601f01602080910402602001604051908101604052809291908181526020018280546001816001161561010002031660029004801562000b065780601f1062000ada5761010080835404028352916020019162000b06565b820191906000526020600020905b81548152906001019060200180831162000ae857829003601f168201915b505050505081565b60038054600181600116156101000203166002900480601f01602080910402602001604051908101604052809291908181526020018280546001816001161561010002031660029004801562000ba85780601f1062000b7c5761010080835404028352916020019162000ba8565b820191906000526020600020905b81548152906001019060200180831162000b8a57829003601f168201915b505050505081565b600160009054906101000a900473ffffffffffffffffffffffffffffffffffffffff1681565b6009818154811062000be457fe5b906000526020600020016000915054906101000a900473ffffffffffffffffffffffffffffffffffffffff1681565b6000600160009054906101000a900473ffffffffffffffffffffffffffffffffffffffff1673ffffffffffffffffffffffffffffffffffffffff163373ffffffffffffffffffffffffffffffffffffffff161462000cbd576040517f08c379a000000000000000000000000000000000000000000000000000000000815260040180806020018281038252602d815260200180620028e3602d913960400191505060405180910390fd5b81600654101562000d36576040517f08c379a00000000000000000000000000000000000000000000000000000000081526004018080602001828103825260108152602001807f4e6f7420656e6f756768206d6f6e65790000000000000000000000000000000081525060200191505060405180910390fd5b600030858560405162000d49906200115f565b808473ffffffffffffffffffffffffffffffffffffffff1673ffffffffffffffffffffffffffffffffffffffff1681526020018373ffffffffffffffffffffffffffffffffffffffff1673ffffffffffffffffffffffffffffffffffffffff16815260200180602001828103825283818151815260200191508051906020019080838360005b8381101562000dec57808201518184015260208101905062000dcf565b50505050905090810190601f16801562000e1a5780820380516001836020036101000a031916815260200191505b50945050505050604051809103906000f08015801562000e3e573d6000803e3d6000fd5b5090508073ffffffffffffffffffffffffffffffffffffffff1663d0e30db0846040518263ffffffff1660e01b81526004016000604051808303818588803b15801562000e8a57600080fd5b505af115801562000e9f573d6000803e3d6000fd5b505050505060098190806001815401808255809150509060018203906000526020600020016000909192909190916101000a81548173ffffffffffffffffffffffffffffffffffffffff021916908373ffffffffffffffffffffffffffffffffffffffff16021790555050826006600082825403925050819055507f4305279ff05637150328da90eb41f75a238b13cd3cb5222a755c397fc0cf71093382604051808373ffffffffffffffffffffffffffffffffffffffff1673ffffffffffffffffffffffffffffffffffffffff1681526020018273ffffffffffffffffffffffffffffffffffffffff1673ffffffffffffffffffffffffffffffffffffffff1681526020019250505060405180910390a1809150509392505050565b34600660008282540192505081905550565b600080600860008473ffffffffffffffffffffffffffffffffffffffff1673ffffffffffffffffffffffffffffffffffffffff16815260200190815260200160002054116200101f57600062001022565b60015b9050919050565b6000600754905090565b6200103e3362001040565b565b6000600860008373ffffffffffffffffffffffffffffffffffffffff1673ffffffffffffffffffffffffffffffffffffffff1681526020019081526020016000205414156200109c576007600081548092919060010191905055505b34600860008373ffffffffffffffffffffffffffffffffffffffff1673ffffffffffffffffffffffffffffffffffffffff16815260200190815260200160002060008282540192505081905550346006600082825401925050819055507f97d33a7365e760e859a3453f70484ea24a4aeb75478205a52ac35174ead0ccf681604051808273ffffffffffffffffffffffffffffffffffffffff1673ffffffffffffffffffffffffffffffffffffffff16815260200191505060405180910390a150565b611775806200116e8339019056fe60806040523480156200001157600080fd5b506040516200177538038062001775833981810160405260608110156200003757600080fd5b810190808051906020019092919080519060200190929190805160405193929190846401000000008211156200006c57600080fd5b838201915060208201858111156200008357600080fd5b8251866001820283011164010000000082111715620000a157600080fd5b8083526020830192505050908051906020019080838360005b83811015620000d7578082015181840152602081019050620000ba565b50505050905090810190601f168015620001055780820380516001836020036101000a031916815260200191505b50604052505050826000806101000a81548173ffffffffffffffffffffffffffffffffffffffff021916908373ffffffffffffffffffffffffffffffffffffffff16021790555081600160006101000a81548173ffffffffffffffffffffffffffffffffffffffff021916908373ffffffffffffffffffffffffffffffffffffffff1602179055508060039080519060200190620001a5929190620001e4565b50600060028190555060006006819055506000600460006101000a81548160ff02191690836002811115620001d657fe5b021790555050505062000293565b828054600181600116156101000203166002900490600052602060002090601f016020900481019282601f106200022757805160ff191683800117855562000258565b8280016001018555821562000258579182015b82811115620002575782518255916020019190600101906200023a565b5b5090506200026791906200026b565b5090565b6200029091905b808211156200028c57600081600090555060010162000272565b5090565b90565b6114d280620002a36000396000f3fe60806040526004361061011f5760003560e01c806383698849116100a0578063d8bff5a511610064578063d8bff5a514610427578063e134e33d1461049a578063ea2fe1a21461052a578063f60ca60d14610541578063fc0f58ad146105985761011f565b8063836988491461031b5780638d337b8114610354578063cee024dc146103c7578063d0e30db0146103f2578063d1630756146103fc5761011f565b80634d73cefa116100e75780634d73cefa1461020b578063653721471461025d57806366d003ac14610296578063730bd929146102ed57806383197ef0146103045761011f565b806312b4898e14610124578063215b28c51461014f5780633d493f481461017a5780633fa4f245146101c957806349aa4ee2146101f4575b600080fd5b34801561013057600080fd5b506101396105af565b6040518082815260200191505060405180910390f35b34801561015b57600080fd5b506101646105d3565b6040518082815260200191505060405180910390f35b34801561018657600080fd5b506101b36004803603602081101561019d57600080fd5b81019080803590602001909291905050506105d9565b6040518082815260200191505060405180910390f35b3480156101d557600080fd5b506101de6105f1565b6040518082815260200191505060405180910390f35b34801561020057600080fd5b506102096105f7565b005b34801561021757600080fd5b506102476004803603602081101561022e57600080fd5b81019080803560ff169060200190929190505050610731565b6040518082815260200191505060405180910390f35b34801561026957600080fd5b50610272610746565b6040518082600281111561028257fe5b60ff16815260200191505060405180910390f35b3480156102a257600080fd5b506102ab610759565b604051808273ffffffffffffffffffffffffffffffffffffffff1673ffffffffffffffffffffffffffffffffffffffff16815260200191505060405180910390f35b3480156102f957600080fd5b5061030261077f565b005b34801561031057600080fd5b50610319610a21565b005b34801561032757600080fd5b50610330610bad565b6040518082600281111561034057fe5b60ff16815260200191505060405180910390f35b34801561036057600080fd5b506103a36004803603602081101561037757600080fd5b81019080803573ffffffffffffffffffffffffffffffffffffffff169060200190929190505050610bc4565b604051808260028111156103b357fe5b60ff16815260200191505060405180910390f35b3480156103d357600080fd5b506103dc610c1a565b6040518082815260200191505060405180910390f35b6103fa610c24565b005b34801561040857600080fd5b50610411610d2d565b6040518082815260200191505060405180910390f35b34801561043357600080fd5b506104766004803603602081101561044a57600080fd5b81019080803573ffffffffffffffffffffffffffffffffffffffff169060200190929190505050610d51565b6040518082600281111561048657fe5b60ff16815260200191505060405180910390f35b3480156104a657600080fd5b506104af610d71565b6040518080602001828103825283818151815260200191508051906020019080838360005b838110156104ef5780820151818401526020810190506104d4565b50505050905090810190601f16801561051c5780820380516001836020036101000a031916815260200191505b509250505060405180910390f35b34801561053657600080fd5b5061053f610e0f565b005b34801561054d57600080fd5b50610556610f49565b604051808273ffffffffffffffffffffffffffffffffffffffff1673ffffffffffffffffffffffffffffffffffffffff16815260200191505060405180910390f35b3480156105a457600080fd5b506105ad610f6e565b005b6000600760006105bf6001610731565b815260200190815260200160002054905090565b60065481565b60076020528060005260406000206000915090505481565b60025481565b6000809054906101000a900473ffffffffffffffffffffffffffffffffffffffff1673ffffffffffffffffffffffffffffffffffffffff1663cee2a9cf336040518263ffffffff1660e01b8152600401808273ffffffffffffffffffffffffffffffffffffffff1673ffffffffffffffffffffffffffffffffffffffff16815260200191505060206040518083038186803b15801561069557600080fd5b505afa1580156106a9573d6000803e3d6000fd5b505050506040513d60208110156106bf57600080fd5b8101908080519060200190929190505050610725576040517f08c379a00000000000000000000000000000000000000000000000000000000081526004018080602001828103825260288152602001806114286028913960400191505060405180910390fd5b61072f60006110a8565b565b600081600281111561073f57fe5b9050919050565b600460009054906101000a900460ff1681565b600160009054906101000a900473ffffffffffffffffffffffffffffffffffffffff1681565b6000809054906101000a900473ffffffffffffffffffffffffffffffffffffffff1673ffffffffffffffffffffffffffffffffffffffff16632f54bf6e336040518263ffffffff1660e01b8152600401808273ffffffffffffffffffffffffffffffffffffffff1673ffffffffffffffffffffffffffffffffffffffff16815260200191505060206040518083038186803b15801561081d57600080fd5b505afa158015610831573d6000803e3d6000fd5b505050506040513d602081101561084757600080fd5b81019080805190602001909291905050506108ad576040517f08c379a000000000000000000000000000000000000000000000000000000000815260040180806020018281038252602481526020018061147a6024913960400191505060405180910390fd5b60008060009054906101000a900473ffffffffffffffffffffffffffffffffffffffff1673ffffffffffffffffffffffffffffffffffffffff1663e51c94fb6040518163ffffffff1660e01b815260040160206040518083038186803b15801561091657600080fd5b505afa15801561092a573d6000803e3d6000fd5b505050506040513d602081101561094057600080fd5b8101908080519060200190929190505050905060016002828161095f57fe5b04016007600061096f6001610731565b815260200190815260200160002054106109905761098b6112bf565b6109ca565b60016002828161099c57fe5b0401600760006109ac6002610731565b815260200190815260200160002054106109c9576109c8611350565b5b5b7f0439a4a365ca8457bf0ff8f4d5db67d74fef20bf9cb6513a56395edbd5af8b51600460009054906101000a900460ff1660405180826002811115610a0b57fe5b60ff16815260200191505060405180910390a150565b6000809054906101000a900473ffffffffffffffffffffffffffffffffffffffff1673ffffffffffffffffffffffffffffffffffffffff16632f54bf6e336040518263ffffffff1660e01b8152600401808273ffffffffffffffffffffffffffffffffffffffff1673ffffffffffffffffffffffffffffffffffffffff16815260200191505060206040518083038186803b158015610abf57600080fd5b505afa158015610ad3573d6000803e3d6000fd5b505050506040513d6020811015610ae957600080fd5b8101908080519060200190929190505050610b4f576040517f08c379a000000000000000000000000000000000000000000000000000000000815260040180806020018281038252602481526020018061147a6024913960400191505060405180910390fd5b610b57611350565b7f0439a4a365ca8457bf0ff8f4d5db67d74fef20bf9cb6513a56395edbd5af8b51600460009054906101000a900460ff1660405180826002811115610b9857fe5b60ff16815260200191505060405180910390a1565b6000600460009054906101000a900460ff16905090565b6000600560008373ffffffffffffffffffffffffffffffffffffffff1673ffffffffffffffffffffffffffffffffffffffff16815260200190815260200160002060009054906101000a900460ff169050919050565b6000600654905090565b6000809054906101000a900473ffffffffffffffffffffffffffffffffffffffff1673ffffffffffffffffffffffffffffffffffffffff163373ffffffffffffffffffffffffffffffffffffffff1614610cc9576040517f08c379a000000000000000000000000000000000000000000000000000000000815260040180806020018281038252602a815260200180611450602a913960400191505060405180910390fd5b600060025414610d24576040517f08c379a000000000000000000000000000000000000000000000000000000000815260040180806020018281038252602d8152602001806113fb602d913960400191505060405180910390fd5b34600281905550565b600060076000610d3d6002610731565b815260200190815260200160002054905090565b60056020528060005260406000206000915054906101000a900460ff1681565b60038054600181600116156101000203166002900480601f016020809104026020016040519081016040528092919081815260200182805460018160011615610100020316600290048015610e075780601f10610ddc57610100808354040283529160200191610e07565b820191906000526020600020905b815481529060010190602001808311610dea57829003601f168201915b505050505081565b6000809054906101000a900473ffffffffffffffffffffffffffffffffffffffff1673ffffffffffffffffffffffffffffffffffffffff1663cee2a9cf336040518263ffffffff1660e01b8152600401808273ffffffffffffffffffffffffffffffffffffffff1673ffffffffffffffffffffffffffffffffffffffff16815260200191505060206040518083038186803b158015610ead57600080fd5b505afa158015610ec1573d6000803e3d6000fd5b505050506040513d6020811015610ed757600080fd5b8101908080519060200190929190505050610f3d576040517f08c379a00000000000000000000000000000000000000000000000000000000081526004018080602001828103825260288152602001806114286028913960400191505060405180910390fd5b610f4760026110a8565b565b6000809054906101000a900473ffffffffffffffffffffffffffffffffffffffff1681565b6000809054906101000a900473ffffffffffffffffffffffffffffffffffffffff1673ffffffffffffffffffffffffffffffffffffffff1663cee2a9cf336040518263ffffffff1660e01b8152600401808273ffffffffffffffffffffffffffffffffffffffff1673ffffffffffffffffffffffffffffffffffffffff16815260200191505060206040518083038186803b15801561100c57600080fd5b505afa158015611020573d6000803e3d6000fd5b505050506040513d602081101561103657600080fd5b810190808051906020019092919050505061109c576040517f08c379a00000000000000000000000000000000000000000000000000000000081526004018080602001828103825260288152602001806114286028913960400191505060405180910390fd5b6110a660016110a8565b565b600060028111156110b557fe5b600560003373ffffffffffffffffffffffffffffffffffffffff1673ffffffffffffffffffffffffffffffffffffffff16815260200190815260200160002060009054906101000a900460ff16600281111561110d57fe5b1415611155576006600081548092919060010191905055506007600061113283610731565b8152602001908152602001600020600081548092919060010191905055506111f9565b600760006111ae600560003373ffffffffffffffffffffffffffffffffffffffff1673ffffffffffffffffffffffffffffffffffffffff16815260200190815260200160002060009054906101000a900460ff16610731565b81526020019081526020016000206000815480929190600190039190505550600760006111da83610731565b8152602001908152602001600020600081548092919060010191905055505b80600560003373ffffffffffffffffffffffffffffffffffffffff1673ffffffffffffffffffffffffffffffffffffffff16815260200190815260200160002060006101000a81548160ff0219169083600281111561125457fe5b02179055507f3b7f4bea1b2462212751e8a9d23ca2a37a1abf7ff729725e224314f1c190c99133604051808273ffffffffffffffffffffffffffffffffffffffff1673ffffffffffffffffffffffffffffffffffffffff16815260200191505060405180910390a150565b600160009054906101000a900473ffffffffffffffffffffffffffffffffffffffff1673ffffffffffffffffffffffffffffffffffffffff166108fc6002549081150290604051600060405180830381858888f19350505050158015611329573d6000803e3d6000fd5b506001600460006101000a81548160ff0219169083600281111561134957fe5b0217905550565b6002600460006101000a81548160ff0219169083600281111561136f57fe5b02179055506000809054906101000a900473ffffffffffffffffffffffffffffffffffffffff1673ffffffffffffffffffffffffffffffffffffffff1663590e1ae36002546040518263ffffffff1660e01b81526004016000604051808303818588803b1580156113df57600080fd5b505af11580156113f3573d6000803e3d6000fd5b505050505056fe46756e6374696f6e2063616e2062652063616c6c6564206f6e6c7920617420696e697469616c697a6174696f6e46756e6374696f6e2063616e2062652063616c6c6564206f6e6c7920627920696e766573746f727346756e6374696f6e2063616e2062652063616c6c6564206f6e6c79206279207468652070726f6a65637446756e6374696f6e2063616e2062652063616c6c6564206f6e6c79206279206f776e6572a265627a7a723158202e212c834f3ade0b12e8ceca43ebbbf151b65f9a77f80347beab26140c7c199764736f6c634300051000324f6e6c79207468652070726f6a656374206f776e65722063616e2063616c6c20746869732066756e6374696f6ea265627a7a7231582098f7906fcb602c8d270b8e78c641900e8a4cda9e121f44e16c669a7780984ce064736f6c63430005100032a265627a7a723158206424c2906320e5f60fc5ce2398ae3b5b07590a57174f3248b310522435af873964736f6c63430005100032",
  "source": "// SPDX-License-Identifier: AFL-1.1\npragma solidity ^0.5.16;\n\nimport \"./Project.sol\";\nimport \"./Account.sol\";\n\ncontract Governor {\n\n    // Governor owner\n    address public owner;\n\n    event NewProject(address creator, Project projectAddress);\n    event NewAccount(address creator, Account accountAddress);\n\n    // list of all active contracts\n    Project[] public projectList;\n\n    // list of all active accounts\n    mapping(address => Account) private accountList;\n\n    constructor () public {\n        owner = msg.sender;\n    }\n\n    modifier onlyOwner {\n        require(msg.sender == owner, \"Only the owner is allowed to call this function\");\n        _;\n    }\n\n    modifier onlyAccount {\n        require(accountList[msg.sender] != Account(0), \"Only a registered account is allowed to call this function\");\n        _;\n    }\n\n    function createProject(\n        string memory _name,\n        string memory _email,\n        string memory _description, \n        string memory _img\n        ) public returns(Project) {\n        Project p = new Project(msg.sender, _name, _email, _description, _img);\n        projectList.push(p);\n        emit NewProject(msg.sender, p);\n        return p;\n    }\n\n    function createAccount(string memory _name) public returns(Account) {\n        Account a = new Account(msg.sender, _name);\n        accountList[msg.sender] = a;\n        emit NewAccount(msg.sender, a);\n        return a;\n    }\n\n    function getProjects() public view returns(Project[] memory) {\n        return projectList;\n    }\n\n    function getAccount(address _address) public view returns(Account) {\n        return accountList[_address];\n    }\n}",
  "sourcePath": "/Users/braduveronik/Movies/untitled folder/crawler_py/blockchain_license_thesis/KickInvest/blockchain/contracts/contracts/Governor.sol",
  "compiler": {
    "name": "solc",
    "version": "0.5.16+commit.9c3226ce.Emscripten.clang"
  },
  "schemaVersion": "3.0.23",
  "updatedAt": "2020-07-18T17:53:00.384Z",
  "networkType": "ethereum",
  "devdoc": {
    "methods": {}
  },
  "userdoc": {
    "methods": {}
  }
}