{
  "contractName": "Project",
  "abi": [
    {
      "inputs": [
        {
          "internalType": "address",
          "name": "_owner",
          "type": "address"
        },
        {
          "internalType": "string",
          "name": "_name",
          "type": "string"
        },
        {
          "internalType": "string",
          "name": "_email",
          "type": "string"
        },
        {
          "internalType": "string",
          "name": "_description",
          "type": "string"
        },
        {
          "internalType": "string",
          "name": "_img",
          "type": "string"
        }
      ],
      "payable": false,
      "stateMutability": "nonpayable",
      "type": "constructor"
    },
    {
      "anonymous": false,
      "inputs": [
        {
          "indexed": false,
          "internalType": "address",
          "name": "investor",
          "type": "address"
        }
      ],
      "name": "NewInvestor",
      "type": "event"
    },
    {
      "anonymous": false,
      "inputs": [
        {
          "indexed": false,
          "internalType": "address",
          "name": "investor",
          "type": "address"
        },
        {
          "indexed": false,
          "internalType": "contract Transfer",
          "name": "transferAddress",
          "type": "address"
        }
      ],
      "name": "NewTransfer",
      "type": "event"
    },
    {
      "constant": true,
      "inputs": [],
      "name": "account",
      "outputs": [
        {
          "internalType": "uint256",
          "name": "",
          "type": "uint256"
        }
      ],
      "payable": false,
      "stateMutability": "view",
      "type": "function"
    },
    {
      "constant": true,
      "inputs": [],
      "name": "description",
      "outputs": [
        {
          "internalType": "string",
          "name": "",
          "type": "string"
        }
      ],
      "payable": false,
      "stateMutability": "view",
      "type": "function"
    },
    {
      "constant": true,
      "inputs": [],
      "name": "email",
      "outputs": [
        {
          "internalType": "string",
          "name": "",
          "type": "string"
        }
      ],
      "payable": false,
      "stateMutability": "view",
      "type": "function"
    },
    {
      "constant": true,
      "inputs": [],
      "name": "img",
      "outputs": [
        {
          "internalType": "string",
          "name": "",
          "type": "string"
        }
      ],
      "payable": false,
      "stateMutability": "view",
      "type": "function"
    },
    {
      "constant": true,
      "inputs": [
        {
          "internalType": "address",
          "name": "",
          "type": "address"
        }
      ],
      "name": "investors",
      "outputs": [
        {
          "internalType": "uint256",
          "name": "",
          "type": "uint256"
        }
      ],
      "payable": false,
      "stateMutability": "view",
      "type": "function"
    },
    {
      "constant": true,
      "inputs": [],
      "name": "name",
      "outputs": [
        {
          "internalType": "string",
          "name": "",
          "type": "string"
        }
      ],
      "payable": false,
      "stateMutability": "view",
      "type": "function"
    },
    {
      "constant": true,
      "inputs": [],
      "name": "owner",
      "outputs": [
        {
          "internalType": "address",
          "name": "",
          "type": "address"
        }
      ],
      "payable": false,
      "stateMutability": "view",
      "type": "function"
    },
    {
      "constant": true,
      "inputs": [
        {
          "internalType": "uint256",
          "name": "",
          "type": "uint256"
        }
      ],
      "name": "transfers",
      "outputs": [
        {
          "internalType": "contract Transfer",
          "name": "",
          "type": "address"
        }
      ],
      "payable": false,
      "stateMutability": "view",
      "type": "function"
    },
    {
      "constant": false,
      "inputs": [
        {
          "internalType": "address",
          "name": "investor",
          "type": "address"
        }
      ],
      "name": "investFromAccount",
      "outputs": [],
      "payable": true,
      "stateMutability": "payable",
      "type": "function"
    },
    {
      "constant": false,
      "inputs": [],
      "name": "invest",
      "outputs": [],
      "payable": true,
      "stateMutability": "payable",
      "type": "function"
    },
    {
      "constant": false,
      "inputs": [
        {
          "internalType": "address payable",
          "name": "_recipient",
          "type": "address"
        },
        {
          "internalType": "string",
          "name": "_reason",
          "type": "string"
        },
        {
          "internalType": "uint256",
          "name": "value",
          "type": "uint256"
        }
      ],
      "name": "initTransfer",
      "outputs": [
        {
          "internalType": "contract Transfer",
          "name": "",
          "type": "address"
        }
      ],
      "payable": false,
      "stateMutability": "nonpayable",
      "type": "function"
    },
    {
      "constant": true,
      "inputs": [
        {
          "internalType": "address",
          "name": "_wallet",
          "type": "address"
        }
      ],
      "name": "isInvestor",
      "outputs": [
        {
          "internalType": "bool",
          "name": "",
          "type": "bool"
        }
      ],
      "payable": false,
      "stateMutability": "view",
      "type": "function"
    },
    {
      "constant": true,
      "inputs": [
        {
          "internalType": "address",
          "name": "_address",
          "type": "address"
        }
      ],
      "name": "isOwner",
      "outputs": [
        {
          "internalType": "bool",
          "name": "",
          "type": "bool"
        }
      ],
      "payable": false,
      "stateMutability": "view",
      "type": "function"
    },
    {
      "constant": true,
      "inputs": [],
      "name": "getNumberOfInvestors",
      "outputs": [
        {
          "internalType": "uint256",
          "name": "",
          "type": "uint256"
        }
      ],
      "payable": false,
      "stateMutability": "view",
      "type": "function"
    },
    {
      "constant": true,
      "inputs": [],
      "name": "getTransfers",
      "outputs": [
        {
          "internalType": "contract Transfer[]",
          "name": "",
          "type": "address[]"
        }
      ],
      "payable": false,
      "stateMutability": "view",
      "type": "function"
    },
    {
      "constant": false,
      "inputs": [],
      "name": "receive",
      "outputs": [],
      "payable": true,
      "stateMutability": "payable",
      "type": "function"
    },
    {
      "constant": false,
      "inputs": [],
      "name": "refund",
      "outputs": [],
      "payable": true,
      "stateMutability": "payable",
      "type": "function"
    }
  ],
  "bytecode": "0x60806040523480156200001157600080fd5b5060405162002e3c38038062002e3c833981810160405260a08110156200003757600080fd5b8101908080519060200190929190805160405193929190846401000000008211156200006257600080fd5b838201915060208201858111156200007957600080fd5b82518660018202830111640100000000821117156200009757600080fd5b8083526020830192505050908051906020019080838360005b83811015620000cd578082015181840152602081019050620000b0565b50505050905090810190601f168015620000fb5780820380516001836020036101000a031916815260200191505b50604052602001805160405193929190846401000000008211156200011f57600080fd5b838201915060208201858111156200013657600080fd5b82518660018202830111640100000000821117156200015457600080fd5b8083526020830192505050908051906020019080838360005b838110156200018a5780820151818401526020810190506200016d565b50505050905090810190601f168015620001b85780820380516001836020036101000a031916815260200191505b5060405260200180516040519392919084640100000000821115620001dc57600080fd5b83820191506020820185811115620001f357600080fd5b82518660018202830111640100000000821117156200021157600080fd5b8083526020830192505050908051906020019080838360005b83811015620002475780820151818401526020810190506200022a565b50505050905090810190601f168015620002755780820380516001836020036101000a031916815260200191505b50604052602001805160405193929190846401000000008211156200029957600080fd5b83820191506020820185811115620002b057600080fd5b8251866001820283011164010000000082111715620002ce57600080fd5b8083526020830192505050908051906020019080838360005b8381101562000304578082015181840152602081019050620002e7565b50505050905090810190601f168015620003325780820380516001836020036101000a031916815260200191505b50604052505050336000806101000a81548173ffffffffffffffffffffffffffffffffffffffff021916908373ffffffffffffffffffffffffffffffffffffffff16021790555084600160006101000a81548173ffffffffffffffffffffffffffffffffffffffff021916908373ffffffffffffffffffffffffffffffffffffffff1602179055508360029080519060200190620003d292919062000439565b508260039080519060200190620003eb92919062000439565b5081600590805190602001906200040492919062000439565b5080600490805190602001906200041d92919062000439565b50600060068190555060006007819055505050505050620004e8565b828054600181600116156101000203166002900490600052602060002090601f016020900481019282601f106200047c57805160ff1916838001178555620004ad565b82800160010185558215620004ad579182015b82811115620004ac5782518255916020019190600101906200048f565b5b509050620004bc9190620004c0565b5090565b620004e591905b80821115620004e1576000816000905550600101620004c7565b5090565b90565b61294480620004f86000396000f3fe608060405260043610620001165760003560e01c80637284e41611620000a3578063995d2cc4116200006d578063995d2cc41462000614578063a3e76c0f146200074d578063cee2a9cf1462000759578063e51c94fb14620007c6578063e8b5e51f14620007f45762000116565b80637284e416146200040f578063820e93f514620004a55780638da5cb5b146200053b5780639377d71114620005955762000116565b8063426bfd0011620000e5578063426bfd0014620002d6578063590e1ae3146200036c5780635dab242014620003785780636f7bc9be14620003a65762000116565b806306fdde03146200011b5780632f54bf6e14620001b15780632f65142c146200021e57806342188789146200028f575b600080fd5b3480156200012857600080fd5b506200013362000800565b6040518080602001828103825283818151815260200191508051906020019080838360005b838110156200017557808201518184015260208101905062000158565b50505050905090810190601f168015620001a35780820380516001836020036101000a031916815260200191505b509250505060405180910390f35b348015620001be57600080fd5b506200020460048036036020811015620001d757600080fd5b81019080803573ffffffffffffffffffffffffffffffffffffffff169060200190929190505050620008a2565b604051808215151515815260200191505060405180910390f35b3480156200022b57600080fd5b5062000236620008fc565b6040518080602001828103825283818151815260200191508051906020019060200280838360005b838110156200027b5780820151818401526020810190506200025e565b505050509050019250505060405180910390f35b620002d460048036036020811015620002a757600080fd5b81019080803573ffffffffffffffffffffffffffffffffffffffff1690602001909291905050506200098c565b005b348015620002e357600080fd5b50620002ee6200099a565b6040518080602001828103825283818151815260200191508051906020019080838360005b838110156200033057808201518184015260208101905062000313565b50505050905090810190601f1680156200035e5780820380516001836020036101000a031916815260200191505b509250505060405180910390f35b6200037662000a3c565b005b3480156200038557600080fd5b506200039062000a4e565b6040518082815260200191505060405180910390f35b348015620003b357600080fd5b50620003f960048036036020811015620003cc57600080fd5b81019080803573ffffffffffffffffffffffffffffffffffffffff16906020019092919050505062000a54565b6040518082815260200191505060405180910390f35b3480156200041c57600080fd5b506200042762000a6c565b6040518080602001828103825283818151815260200191508051906020019080838360005b83811015620004695780820151818401526020810190506200044c565b50505050905090810190601f168015620004975780820380516001836020036101000a031916815260200191505b509250505060405180910390f35b348015620004b257600080fd5b50620004bd62000b0e565b6040518080602001828103825283818151815260200191508051906020019080838360005b83811015620004ff578082015181840152602081019050620004e2565b50505050905090810190601f1680156200052d5780820380516001836020036101000a031916815260200191505b509250505060405180910390f35b3480156200054857600080fd5b506200055362000bb0565b604051808273ffffffffffffffffffffffffffffffffffffffff1673ffffffffffffffffffffffffffffffffffffffff16815260200191505060405180910390f35b348015620005a257600080fd5b50620005d260048036036020811015620005bb57600080fd5b810190808035906020019092919050505062000bd6565b604051808273ffffffffffffffffffffffffffffffffffffffff1673ffffffffffffffffffffffffffffffffffffffff16815260200191505060405180910390f35b3480156200062157600080fd5b506200070b600480360360608110156200063a57600080fd5b81019080803573ffffffffffffffffffffffffffffffffffffffff169060200190929190803590602001906401000000008111156200067857600080fd5b8201836020820111156200068b57600080fd5b80359060200191846001830284011164010000000083111715620006ae57600080fd5b91908080601f016020809104026020016040519081016040528093929190818152602001838380828437600081840152601f19601f8201169050808301925050505050505091929192908035906020019092919050505062000c13565b604051808273ffffffffffffffffffffffffffffffffffffffff1673ffffffffffffffffffffffffffffffffffffffff16815260200191505060405180910390f35b6200075762000fbc565b005b3480156200076657600080fd5b50620007ac600480360360208110156200077f57600080fd5b81019080803573ffffffffffffffffffffffffffffffffffffffff16906020019092919050505062000fce565b604051808215151515815260200191505060405180910390f35b348015620007d357600080fd5b50620007de62001029565b6040518082815260200191505060405180910390f35b620007fe62001033565b005b60028054600181600116156101000203166002900480601f0160208091040260200160405190810160405280929190818152602001828054600181600116156101000203166002900480156200089a5780601f106200086e576101008083540402835291602001916200089a565b820191906000526020600020905b8154815290600101906020018083116200087c57829003601f168201915b505050505081565b6000600160009054906101000a900473ffffffffffffffffffffffffffffffffffffffff1673ffffffffffffffffffffffffffffffffffffffff168273ffffffffffffffffffffffffffffffffffffffff16149050919050565b606060098054806020026020016040519081016040528092919081815260200182805480156200098257602002820191906000526020600020905b8160009054906101000a900473ffffffffffffffffffffffffffffffffffffffff1673ffffffffffffffffffffffffffffffffffffffff168152602001906001019080831162000937575b5050505050905090565b620009978162001040565b50565b60048054600181600116156101000203166002900480601f01602080910402602001604051908101604052809291908181526020018280546001816001161561010002031660029004801562000a345780601f1062000a085761010080835404028352916020019162000a34565b820191906000526020600020905b81548152906001019060200180831162000a1657829003601f168201915b505050505081565b34600660008282540192505081905550565b60065481565b60086020528060005260406000206000915090505481565b60058054600181600116156101000203166002900480601f01602080910402602001604051908101604052809291908181526020018280546001816001161561010002031660029004801562000b065780601f1062000ada5761010080835404028352916020019162000b06565b820191906000526020600020905b81548152906001019060200180831162000ae857829003601f168201915b505050505081565b60038054600181600116156101000203166002900480601f01602080910402602001604051908101604052809291908181526020018280546001816001161561010002031660029004801562000ba85780601f1062000b7c5761010080835404028352916020019162000ba8565b820191906000526020600020905b81548152906001019060200180831162000b8a57829003601f168201915b505050505081565b600160009054906101000a900473ffffffffffffffffffffffffffffffffffffffff1681565b6009818154811062000be457fe5b906000526020600020016000915054906101000a900473ffffffffffffffffffffffffffffffffffffffff1681565b6000600160009054906101000a900473ffffffffffffffffffffffffffffffffffffffff1673ffffffffffffffffffffffffffffffffffffffff163373ffffffffffffffffffffffffffffffffffffffff161462000cbd576040517f08c379a000000000000000000000000000000000000000000000000000000000815260040180806020018281038252602d815260200180620028e3602d913960400191505060405180910390fd5b81600654101562000d36576040517f08c379a00000000000000000000000000000000000000000000000000000000081526004018080602001828103825260108152602001807f4e6f7420656e6f756768206d6f6e65790000000000000000000000000000000081525060200191505060405180910390fd5b600030858560405162000d49906200115f565b808473ffffffffffffffffffffffffffffffffffffffff1673ffffffffffffffffffffffffffffffffffffffff1681526020018373ffffffffffffffffffffffffffffffffffffffff1673ffffffffffffffffffffffffffffffffffffffff16815260200180602001828103825283818151815260200191508051906020019080838360005b8381101562000dec57808201518184015260208101905062000dcf565b50505050905090810190601f16801562000e1a5780820380516001836020036101000a031916815260200191505b50945050505050604051809103906000f08015801562000e3e573d6000803e3d6000fd5b5090508073ffffffffffffffffffffffffffffffffffffffff1663d0e30db0846040518263ffffffff1660e01b81526004016000604051808303818588803b15801562000e8a57600080fd5b505af115801562000e9f573d6000803e3d6000fd5b505050505060098190806001815401808255809150509060018203906000526020600020016000909192909190916101000a81548173ffffffffffffffffffffffffffffffffffffffff021916908373ffffffffffffffffffffffffffffffffffffffff16021790555050826006600082825403925050819055507f4305279ff05637150328da90eb41f75a238b13cd3cb5222a755c397fc0cf71093382604051808373ffffffffffffffffffffffffffffffffffffffff1673ffffffffffffffffffffffffffffffffffffffff1681526020018273ffffffffffffffffffffffffffffffffffffffff1673ffffffffffffffffffffffffffffffffffffffff1681526020019250505060405180910390a1809150509392505050565b34600660008282540192505081905550565b600080600860008473ffffffffffffffffffffffffffffffffffffffff1673ffffffffffffffffffffffffffffffffffffffff16815260200190815260200160002054116200101f57600062001022565b60015b9050919050565b6000600754905090565b6200103e3362001040565b565b6000600860008373ffffffffffffffffffffffffffffffffffffffff1673ffffffffffffffffffffffffffffffffffffffff1681526020019081526020016000205414156200109c576007600081548092919060010191905055505b34600860008373ffffffffffffffffffffffffffffffffffffffff1673ffffffffffffffffffffffffffffffffffffffff16815260200190815260200160002060008282540192505081905550346006600082825401925050819055507f97d33a7365e760e859a3453f70484ea24a4aeb75478205a52ac35174ead0ccf681604051808273ffffffffffffffffffffffffffffffffffffffff1673ffffffffffffffffffffffffffffffffffffffff16815260200191505060405180910390a150565b611775806200116e8339019056fe60806040523480156200001157600080fd5b506040516200177538038062001775833981810160405260608110156200003757600080fd5b810190808051906020019092919080519060200190929190805160405193929190846401000000008211156200006c57600080fd5b838201915060208201858111156200008357600080fd5b8251866001820283011164010000000082111715620000a157600080fd5b8083526020830192505050908051906020019080838360005b83811015620000d7578082015181840152602081019050620000ba565b50505050905090810190601f168015620001055780820380516001836020036101000a031916815260200191505b50604052505050826000806101000a81548173ffffffffffffffffffffffffffffffffffffffff021916908373ffffffffffffffffffffffffffffffffffffffff16021790555081600160006101000a81548173ffffffffffffffffffffffffffffffffffffffff021916908373ffffffffffffffffffffffffffffffffffffffff1602179055508060039080519060200190620001a5929190620001e4565b50600060028190555060006006819055506000600460006101000a81548160ff02191690836002811115620001d657fe5b021790555050505062000293565b828054600181600116156101000203166002900490600052602060002090601f016020900481019282601f106200022757805160ff191683800117855562000258565b8280016001018555821562000258579182015b82811115620002575782518255916020019190600101906200023a565b5b5090506200026791906200026b565b5090565b6200029091905b808211156200028c57600081600090555060010162000272565b5090565b90565b6114d280620002a36000396000f3fe60806040526004361061011f5760003560e01c806383698849116100a0578063d8bff5a511610064578063d8bff5a514610427578063e134e33d1461049a578063ea2fe1a21461052a578063f60ca60d14610541578063fc0f58ad146105985761011f565b8063836988491461031b5780638d337b8114610354578063cee024dc146103c7578063d0e30db0146103f2578063d1630756146103fc5761011f565b80634d73cefa116100e75780634d73cefa1461020b578063653721471461025d57806366d003ac14610296578063730bd929146102ed57806383197ef0146103045761011f565b806312b4898e14610124578063215b28c51461014f5780633d493f481461017a5780633fa4f245146101c957806349aa4ee2146101f4575b600080fd5b34801561013057600080fd5b506101396105af565b6040518082815260200191505060405180910390f35b34801561015b57600080fd5b506101646105d3565b6040518082815260200191505060405180910390f35b34801561018657600080fd5b506101b36004803603602081101561019d57600080fd5b81019080803590602001909291905050506105d9565b6040518082815260200191505060405180910390f35b3480156101d557600080fd5b506101de6105f1565b6040518082815260200191505060405180910390f35b34801561020057600080fd5b506102096105f7565b005b34801561021757600080fd5b506102476004803603602081101561022e57600080fd5b81019080803560ff169060200190929190505050610731565b6040518082815260200191505060405180910390f35b34801561026957600080fd5b50610272610746565b6040518082600281111561028257fe5b60ff16815260200191505060405180910390f35b3480156102a257600080fd5b506102ab610759565b604051808273ffffffffffffffffffffffffffffffffffffffff1673ffffffffffffffffffffffffffffffffffffffff16815260200191505060405180910390f35b3480156102f957600080fd5b5061030261077f565b005b34801561031057600080fd5b50610319610a21565b005b34801561032757600080fd5b50610330610bad565b6040518082600281111561034057fe5b60ff16815260200191505060405180910390f35b34801561036057600080fd5b506103a36004803603602081101561037757600080fd5b81019080803573ffffffffffffffffffffffffffffffffffffffff169060200190929190505050610bc4565b604051808260028111156103b357fe5b60ff16815260200191505060405180910390f35b3480156103d357600080fd5b506103dc610c1a565b6040518082815260200191505060405180910390f35b6103fa610c24565b005b34801561040857600080fd5b50610411610d2d565b6040518082815260200191505060405180910390f35b34801561043357600080fd5b506104766004803603602081101561044a57600080fd5b81019080803573ffffffffffffffffffffffffffffffffffffffff169060200190929190505050610d51565b6040518082600281111561048657fe5b60ff16815260200191505060405180910390f35b3480156104a657600080fd5b506104af610d71565b6040518080602001828103825283818151815260200191508051906020019080838360005b838110156104ef5780820151818401526020810190506104d4565b50505050905090810190601f16801561051c5780820380516001836020036101000a031916815260200191505b509250505060405180910390f35b34801561053657600080fd5b5061053f610e0f565b005b34801561054d57600080fd5b50610556610f49565b604051808273ffffffffffffffffffffffffffffffffffffffff1673ffffffffffffffffffffffffffffffffffffffff16815260200191505060405180910390f35b3480156105a457600080fd5b506105ad610f6e565b005b6000600760006105bf6001610731565b815260200190815260200160002054905090565b60065481565b60076020528060005260406000206000915090505481565b60025481565b6000809054906101000a900473ffffffffffffffffffffffffffffffffffffffff1673ffffffffffffffffffffffffffffffffffffffff1663cee2a9cf336040518263ffffffff1660e01b8152600401808273ffffffffffffffffffffffffffffffffffffffff1673ffffffffffffffffffffffffffffffffffffffff16815260200191505060206040518083038186803b15801561069557600080fd5b505afa1580156106a9573d6000803e3d6000fd5b505050506040513d60208110156106bf57600080fd5b8101908080519060200190929190505050610725576040517f08c379a00000000000000000000000000000000000000000000000000000000081526004018080602001828103825260288152602001806114286028913960400191505060405180910390fd5b61072f60006110a8565b565b600081600281111561073f57fe5b9050919050565b600460009054906101000a900460ff1681565b600160009054906101000a900473ffffffffffffffffffffffffffffffffffffffff1681565b6000809054906101000a900473ffffffffffffffffffffffffffffffffffffffff1673ffffffffffffffffffffffffffffffffffffffff16632f54bf6e336040518263ffffffff1660e01b8152600401808273ffffffffffffffffffffffffffffffffffffffff1673ffffffffffffffffffffffffffffffffffffffff16815260200191505060206040518083038186803b15801561081d57600080fd5b505afa158015610831573d6000803e3d6000fd5b505050506040513d602081101561084757600080fd5b81019080805190602001909291905050506108ad576040517f08c379a000000000000000000000000000000000000000000000000000000000815260040180806020018281038252602481526020018061147a6024913960400191505060405180910390fd5b60008060009054906101000a900473ffffffffffffffffffffffffffffffffffffffff1673ffffffffffffffffffffffffffffffffffffffff1663e51c94fb6040518163ffffffff1660e01b815260040160206040518083038186803b15801561091657600080fd5b505afa15801561092a573d6000803e3d6000fd5b505050506040513d602081101561094057600080fd5b8101908080519060200190929190505050905060016002828161095f57fe5b04016007600061096f6001610731565b815260200190815260200160002054106109905761098b6112bf565b6109ca565b60016002828161099c57fe5b0401600760006109ac6002610731565b815260200190815260200160002054106109c9576109c8611350565b5b5b7f0439a4a365ca8457bf0ff8f4d5db67d74fef20bf9cb6513a56395edbd5af8b51600460009054906101000a900460ff1660405180826002811115610a0b57fe5b60ff16815260200191505060405180910390a150565b6000809054906101000a900473ffffffffffffffffffffffffffffffffffffffff1673ffffffffffffffffffffffffffffffffffffffff16632f54bf6e336040518263ffffffff1660e01b8152600401808273ffffffffffffffffffffffffffffffffffffffff1673ffffffffffffffffffffffffffffffffffffffff16815260200191505060206040518083038186803b158015610abf57600080fd5b505afa158015610ad3573d6000803e3d6000fd5b505050506040513d6020811015610ae957600080fd5b8101908080519060200190929190505050610b4f576040517f08c379a000000000000000000000000000000000000000000000000000000000815260040180806020018281038252602481526020018061147a6024913960400191505060405180910390fd5b610b57611350565b7f0439a4a365ca8457bf0ff8f4d5db67d74fef20bf9cb6513a56395edbd5af8b51600460009054906101000a900460ff1660405180826002811115610b9857fe5b60ff16815260200191505060405180910390a1565b6000600460009054906101000a900460ff16905090565b6000600560008373ffffffffffffffffffffffffffffffffffffffff1673ffffffffffffffffffffffffffffffffffffffff16815260200190815260200160002060009054906101000a900460ff169050919050565b6000600654905090565b6000809054906101000a900473ffffffffffffffffffffffffffffffffffffffff1673ffffffffffffffffffffffffffffffffffffffff163373ffffffffffffffffffffffffffffffffffffffff1614610cc9576040517f08c379a000000000000000000000000000000000000000000000000000000000815260040180806020018281038252602a815260200180611450602a913960400191505060405180910390fd5b600060025414610d24576040517f08c379a000000000000000000000000000000000000000000000000000000000815260040180806020018281038252602d8152602001806113fb602d913960400191505060405180910390fd5b34600281905550565b600060076000610d3d6002610731565b815260200190815260200160002054905090565b60056020528060005260406000206000915054906101000a900460ff1681565b60038054600181600116156101000203166002900480601f016020809104026020016040519081016040528092919081815260200182805460018160011615610100020316600290048015610e075780601f10610ddc57610100808354040283529160200191610e07565b820191906000526020600020905b815481529060010190602001808311610dea57829003601f168201915b505050505081565b6000809054906101000a900473ffffffffffffffffffffffffffffffffffffffff1673ffffffffffffffffffffffffffffffffffffffff1663cee2a9cf336040518263ffffffff1660e01b8152600401808273ffffffffffffffffffffffffffffffffffffffff1673ffffffffffffffffffffffffffffffffffffffff16815260200191505060206040518083038186803b158015610ead57600080fd5b505afa158015610ec1573d6000803e3d6000fd5b505050506040513d6020811015610ed757600080fd5b8101908080519060200190929190505050610f3d576040517f08c379a00000000000000000000000000000000000000000000000000000000081526004018080602001828103825260288152602001806114286028913960400191505060405180910390fd5b610f4760026110a8565b565b6000809054906101000a900473ffffffffffffffffffffffffffffffffffffffff1681565b6000809054906101000a900473ffffffffffffffffffffffffffffffffffffffff1673ffffffffffffffffffffffffffffffffffffffff1663cee2a9cf336040518263ffffffff1660e01b8152600401808273ffffffffffffffffffffffffffffffffffffffff1673ffffffffffffffffffffffffffffffffffffffff16815260200191505060206040518083038186803b15801561100c57600080fd5b505afa158015611020573d6000803e3d6000fd5b505050506040513d602081101561103657600080fd5b810190808051906020019092919050505061109c576040517f08c379a00000000000000000000000000000000000000000000000000000000081526004018080602001828103825260288152602001806114286028913960400191505060405180910390fd5b6110a660016110a8565b565b600060028111156110b557fe5b600560003373ffffffffffffffffffffffffffffffffffffffff1673ffffffffffffffffffffffffffffffffffffffff16815260200190815260200160002060009054906101000a900460ff16600281111561110d57fe5b1415611155576006600081548092919060010191905055506007600061113283610731565b8152602001908152602001600020600081548092919060010191905055506111f9565b600760006111ae600560003373ffffffffffffffffffffffffffffffffffffffff1673ffffffffffffffffffffffffffffffffffffffff16815260200190815260200160002060009054906101000a900460ff16610731565b81526020019081526020016000206000815480929190600190039190505550600760006111da83610731565b8152602001908152602001600020600081548092919060010191905055505b80600560003373ffffffffffffffffffffffffffffffffffffffff1673ffffffffffffffffffffffffffffffffffffffff16815260200190815260200160002060006101000a81548160ff0219169083600281111561125457fe5b02179055507f3b7f4bea1b2462212751e8a9d23ca2a37a1abf7ff729725e224314f1c190c99133604051808273ffffffffffffffffffffffffffffffffffffffff1673ffffffffffffffffffffffffffffffffffffffff16815260200191505060405180910390a150565b600160009054906101000a900473ffffffffffffffffffffffffffffffffffffffff1673ffffffffffffffffffffffffffffffffffffffff166108fc6002549081150290604051600060405180830381858888f19350505050158015611329573d6000803e3d6000fd5b506001600460006101000a81548160ff0219169083600281111561134957fe5b0217905550565b6002600460006101000a81548160ff0219169083600281111561136f57fe5b02179055506000809054906101000a900473ffffffffffffffffffffffffffffffffffffffff1673ffffffffffffffffffffffffffffffffffffffff1663590e1ae36002546040518263ffffffff1660e01b81526004016000604051808303818588803b1580156113df57600080fd5b505af11580156113f3573d6000803e3d6000fd5b505050505056fe46756e6374696f6e2063616e2062652063616c6c6564206f6e6c7920617420696e697469616c697a6174696f6e46756e6374696f6e2063616e2062652063616c6c6564206f6e6c7920627920696e766573746f727346756e6374696f6e2063616e2062652063616c6c6564206f6e6c79206279207468652070726f6a65637446756e6374696f6e2063616e2062652063616c6c6564206f6e6c79206279206f776e6572a265627a7a723158202e212c834f3ade0b12e8ceca43ebbbf151b65f9a77f80347beab26140c7c199764736f6c634300051000324f6e6c79207468652070726f6a656374206f776e65722063616e2063616c6c20746869732066756e6374696f6ea265627a7a7231582098f7906fcb602c8d270b8e78c641900e8a4cda9e121f44e16c669a7780984ce064736f6c63430005100032",
  "source": "// SPDX-License-Identifier: AFL-1.1\npragma solidity ^0.5.16;\n\nimport \"./Transfer.sol\";\n\ncontract Project {\n    address private governor;\n\n    address public owner;\n    string public name;\n    string public email;\n    string public img;\n    string public description;\n    uint256 public account;\n    uint256 private numberOfInvestors;\n\n    mapping(address => uint256) public investors;\n    Transfer[] public transfers;\n\n    event NewInvestor(address investor);\n    event NewTransfer(address investor, Transfer transferAddress);\n\n    constructor(\n        address _owner,\n        string memory _name,\n        string memory _email,\n        string memory _description,\n        string memory _img\n    ) public {\n        governor = msg.sender;\n        owner = _owner;\n        name = _name;\n        email = _email;\n        description = _description;\n        img = _img;\n        account = 0;\n        numberOfInvestors = 0;\n    }\n\n    modifier onlyGovernor {\n        require(\n            msg.sender == governor,\n            \"Only the governor can call this function\"\n        );\n        _;\n    }\n\n    modifier onlyOwner {\n        require(\n            msg.sender == owner,\n            \"Only the project owner can call this function\"\n        );\n        _;\n    }\n\n    modifier onlyInvestor {\n        require(\n            investors[msg.sender] > 0,\n            \"Only an investor can call this function\"\n        );\n        _;\n    }\n\n    function internalInvest(address investor) private {\n        if (investors[investor] == 0) {\n            numberOfInvestors++;\n        }\n        investors[investor] += msg.value;\n        account += msg.value;\n        emit NewInvestor(investor);\n    }\n\n    function investFromAccount(address investor) external payable {\n        internalInvest(investor);\n    }\n\n    function invest() public payable {\n        internalInvest(msg.sender);\n    }\n\n    function initTransfer(\n        address payable _recipient,\n        string memory _reason,\n        uint256 value\n    ) public onlyOwner returns (Transfer) {\n        require(account >= value, \"Not enough money\");\n        Transfer t = new Transfer(this, _recipient, _reason);\n        t.deposit.value(value)();\n        transfers.push(t);\n        account -= value;\n\n        // Emit NewTransfer log\n        emit NewTransfer(msg.sender, t);\n        return t;\n    }\n\n    /*\n        Check if address is investor able to vote\n        @param _wallet      address of account to check\n    */\n    function isInvestor(address _wallet) public view returns (bool) {\n        return investors[_wallet] > 0 ? true : false;\n    }\n\n    function isOwner(address _address) public view returns (bool) {\n        return (_address == owner);\n    }\n\n    function getNumberOfInvestors() public view returns (uint256) {\n        return numberOfInvestors;\n    }\n\n    function getTransfers() public view returns (Transfer[] memory) {\n        return transfers;\n    }\n\n    function receive() external payable {\n        account += msg.value;\n    }\n\n    function refund() external payable {\n        account += msg.value;\n    }\n}\n",
  "sourcePath": "/Users/braduveronik/Movies/untitled folder/crawler_py/blockchain_license_thesis/KickInvest/blockchain/contracts/contracts/Project.sol",
  "compiler": {
    "name": "solc",
    "version": "0.5.16+commit.9c3226ce.Emscripten.clang"
  },
  "schemaVersion": "3.0.23",
  "updatedAt": "2020-07-18T17:52:57.682Z",
  "devdoc": {
    "methods": {}
  },
  "userdoc": {
    "methods": {}
  }
}