{
  "contractName": "Transfer",
  "abi": [
    {
      "inputs": [
        {
          "internalType": "contract Project",
          "name": "_project",
          "type": "address"
        },
        {
          "internalType": "address payable",
          "name": "_recipient",
          "type": "address"
        },
        {
          "internalType": "string",
          "name": "_reason",
          "type": "string"
        }
      ],
      "payable": false,
      "stateMutability": "nonpayable",
      "type": "constructor"
    },
    {
      "anonymous": false,
      "inputs": [
        {
          "indexed": false,
          "internalType": "address",
          "name": "caster",
          "type": "address"
        }
      ],
      "name": "NewVote",
      "type": "event"
    },
    {
      "anonymous": false,
      "inputs": [
        {
          "indexed": false,
          "internalType": "enum Transfer.TransferResult",
          "name": "result",
          "type": "uint8"
        }
      ],
      "name": "TransferStatus",
      "type": "event"
    },
    {
      "constant": true,
      "inputs": [],
      "name": "project",
      "outputs": [
        {
          "internalType": "contract Project",
          "name": "",
          "type": "address"
        }
      ],
      "payable": false,
      "stateMutability": "view",
      "type": "function"
    },
    {
      "constant": true,
      "inputs": [],
      "name": "reason",
      "outputs": [
        {
          "internalType": "string",
          "name": "",
          "type": "string"
        }
      ],
      "payable": false,
      "stateMutability": "view",
      "type": "function"
    },
    {
      "constant": true,
      "inputs": [],
      "name": "recipient",
      "outputs": [
        {
          "internalType": "address payable",
          "name": "",
          "type": "address"
        }
      ],
      "payable": false,
      "stateMutability": "view",
      "type": "function"
    },
    {
      "constant": true,
      "inputs": [],
      "name": "result",
      "outputs": [
        {
          "internalType": "enum Transfer.TransferResult",
          "name": "",
          "type": "uint8"
        }
      ],
      "payable": false,
      "stateMutability": "view",
      "type": "function"
    },
    {
      "constant": true,
      "inputs": [],
      "name": "value",
      "outputs": [
        {
          "internalType": "uint256",
          "name": "",
          "type": "uint256"
        }
      ],
      "payable": false,
      "stateMutability": "view",
      "type": "function"
    },
    {
      "constant": true,
      "inputs": [
        {
          "internalType": "uint256",
          "name": "",
          "type": "uint256"
        }
      ],
      "name": "voteByCategory",
      "outputs": [
        {
          "internalType": "uint256",
          "name": "",
          "type": "uint256"
        }
      ],
      "payable": false,
      "stateMutability": "view",
      "type": "function"
    },
    {
      "constant": true,
      "inputs": [],
      "name": "voteNumber",
      "outputs": [
        {
          "internalType": "uint256",
          "name": "",
          "type": "uint256"
        }
      ],
      "payable": false,
      "stateMutability": "view",
      "type": "function"
    },
    {
      "constant": true,
      "inputs": [
        {
          "internalType": "address",
          "name": "",
          "type": "address"
        }
      ],
      "name": "votes",
      "outputs": [
        {
          "internalType": "enum Transfer.VoteType",
          "name": "",
          "type": "uint8"
        }
      ],
      "payable": false,
      "stateMutability": "view",
      "type": "function"
    },
    {
      "constant": true,
      "inputs": [
        {
          "internalType": "enum Transfer.VoteType",
          "name": "voteCategory",
          "type": "uint8"
        }
      ],
      "name": "getValueFor",
      "outputs": [
        {
          "internalType": "uint256",
          "name": "",
          "type": "uint256"
        }
      ],
      "payable": false,
      "stateMutability": "pure",
      "type": "function"
    },
    {
      "constant": false,
      "inputs": [],
      "name": "deposit",
      "outputs": [],
      "payable": true,
      "stateMutability": "payable",
      "type": "function"
    },
    {
      "constant": false,
      "inputs": [],
      "name": "checkVotes",
      "outputs": [],
      "payable": false,
      "stateMutability": "nonpayable",
      "type": "function"
    },
    {
      "constant": false,
      "inputs": [],
      "name": "aye",
      "outputs": [],
      "payable": false,
      "stateMutability": "nonpayable",
      "type": "function"
    },
    {
      "constant": false,
      "inputs": [],
      "name": "nay",
      "outputs": [],
      "payable": false,
      "stateMutability": "nonpayable",
      "type": "function"
    },
    {
      "constant": false,
      "inputs": [],
      "name": "destroy",
      "outputs": [],
      "payable": false,
      "stateMutability": "nonpayable",
      "type": "function"
    },
    {
      "constant": false,
      "inputs": [],
      "name": "removeVote",
      "outputs": [],
      "payable": false,
      "stateMutability": "nonpayable",
      "type": "function"
    },
    {
      "constant": true,
      "inputs": [],
      "name": "getAyeVotes",
      "outputs": [
        {
          "internalType": "uint256",
          "name": "",
          "type": "uint256"
        }
      ],
      "payable": false,
      "stateMutability": "view",
      "type": "function"
    },
    {
      "constant": true,
      "inputs": [],
      "name": "getNayVotes",
      "outputs": [
        {
          "internalType": "uint256",
          "name": "",
          "type": "uint256"
        }
      ],
      "payable": false,
      "stateMutability": "view",
      "type": "function"
    },
    {
      "constant": true,
      "inputs": [],
      "name": "getNumberOfVotes",
      "outputs": [
        {
          "internalType": "uint256",
          "name": "",
          "type": "uint256"
        }
      ],
      "payable": false,
      "stateMutability": "view",
      "type": "function"
    },
    {
      "constant": true,
      "inputs": [],
      "name": "getTransferResult",
      "outputs": [
        {
          "internalType": "enum Transfer.TransferResult",
          "name": "",
          "type": "uint8"
        }
      ],
      "payable": false,
      "stateMutability": "view",
      "type": "function"
    },
    {
      "constant": true,
      "inputs": [
        {
          "internalType": "address",
          "name": "_account",
          "type": "address"
        }
      ],
      "name": "getVote",
      "outputs": [
        {
          "internalType": "enum Transfer.VoteType",
          "name": "",
          "type": "uint8"
        }
      ],
      "payable": false,
      "stateMutability": "view",
      "type": "function"
    }
  ],
  "bytecode": "0x60806040523480156200001157600080fd5b506040516200177538038062001775833981810160405260608110156200003757600080fd5b810190808051906020019092919080519060200190929190805160405193929190846401000000008211156200006c57600080fd5b838201915060208201858111156200008357600080fd5b8251866001820283011164010000000082111715620000a157600080fd5b8083526020830192505050908051906020019080838360005b83811015620000d7578082015181840152602081019050620000ba565b50505050905090810190601f168015620001055780820380516001836020036101000a031916815260200191505b50604052505050826000806101000a81548173ffffffffffffffffffffffffffffffffffffffff021916908373ffffffffffffffffffffffffffffffffffffffff16021790555081600160006101000a81548173ffffffffffffffffffffffffffffffffffffffff021916908373ffffffffffffffffffffffffffffffffffffffff1602179055508060039080519060200190620001a5929190620001e4565b50600060028190555060006006819055506000600460006101000a81548160ff02191690836002811115620001d657fe5b021790555050505062000293565b828054600181600116156101000203166002900490600052602060002090601f016020900481019282601f106200022757805160ff191683800117855562000258565b8280016001018555821562000258579182015b82811115620002575782518255916020019190600101906200023a565b5b5090506200026791906200026b565b5090565b6200029091905b808211156200028c57600081600090555060010162000272565b5090565b90565b6114d280620002a36000396000f3fe60806040526004361061011f5760003560e01c806383698849116100a0578063d8bff5a511610064578063d8bff5a514610427578063e134e33d1461049a578063ea2fe1a21461052a578063f60ca60d14610541578063fc0f58ad146105985761011f565b8063836988491461031b5780638d337b8114610354578063cee024dc146103c7578063d0e30db0146103f2578063d1630756146103fc5761011f565b80634d73cefa116100e75780634d73cefa1461020b578063653721471461025d57806366d003ac14610296578063730bd929146102ed57806383197ef0146103045761011f565b806312b4898e14610124578063215b28c51461014f5780633d493f481461017a5780633fa4f245146101c957806349aa4ee2146101f4575b600080fd5b34801561013057600080fd5b506101396105af565b6040518082815260200191505060405180910390f35b34801561015b57600080fd5b506101646105d3565b6040518082815260200191505060405180910390f35b34801561018657600080fd5b506101b36004803603602081101561019d57600080fd5b81019080803590602001909291905050506105d9565b6040518082815260200191505060405180910390f35b3480156101d557600080fd5b506101de6105f1565b6040518082815260200191505060405180910390f35b34801561020057600080fd5b506102096105f7565b005b34801561021757600080fd5b506102476004803603602081101561022e57600080fd5b81019080803560ff169060200190929190505050610731565b6040518082815260200191505060405180910390f35b34801561026957600080fd5b50610272610746565b6040518082600281111561028257fe5b60ff16815260200191505060405180910390f35b3480156102a257600080fd5b506102ab610759565b604051808273ffffffffffffffffffffffffffffffffffffffff1673ffffffffffffffffffffffffffffffffffffffff16815260200191505060405180910390f35b3480156102f957600080fd5b5061030261077f565b005b34801561031057600080fd5b50610319610a21565b005b34801561032757600080fd5b50610330610bad565b6040518082600281111561034057fe5b60ff16815260200191505060405180910390f35b34801561036057600080fd5b506103a36004803603602081101561037757600080fd5b81019080803573ffffffffffffffffffffffffffffffffffffffff169060200190929190505050610bc4565b604051808260028111156103b357fe5b60ff16815260200191505060405180910390f35b3480156103d357600080fd5b506103dc610c1a565b6040518082815260200191505060405180910390f35b6103fa610c24565b005b34801561040857600080fd5b50610411610d2d565b6040518082815260200191505060405180910390f35b34801561043357600080fd5b506104766004803603602081101561044a57600080fd5b81019080803573ffffffffffffffffffffffffffffffffffffffff169060200190929190505050610d51565b6040518082600281111561048657fe5b60ff16815260200191505060405180910390f35b3480156104a657600080fd5b506104af610d71565b6040518080602001828103825283818151815260200191508051906020019080838360005b838110156104ef5780820151818401526020810190506104d4565b50505050905090810190601f16801561051c5780820380516001836020036101000a031916815260200191505b509250505060405180910390f35b34801561053657600080fd5b5061053f610e0f565b005b34801561054d57600080fd5b50610556610f49565b604051808273ffffffffffffffffffffffffffffffffffffffff1673ffffffffffffffffffffffffffffffffffffffff16815260200191505060405180910390f35b3480156105a457600080fd5b506105ad610f6e565b005b6000600760006105bf6001610731565b815260200190815260200160002054905090565b60065481565b60076020528060005260406000206000915090505481565b60025481565b6000809054906101000a900473ffffffffffffffffffffffffffffffffffffffff1673ffffffffffffffffffffffffffffffffffffffff1663cee2a9cf336040518263ffffffff1660e01b8152600401808273ffffffffffffffffffffffffffffffffffffffff1673ffffffffffffffffffffffffffffffffffffffff16815260200191505060206040518083038186803b15801561069557600080fd5b505afa1580156106a9573d6000803e3d6000fd5b505050506040513d60208110156106bf57600080fd5b8101908080519060200190929190505050610725576040517f08c379a00000000000000000000000000000000000000000000000000000000081526004018080602001828103825260288152602001806114286028913960400191505060405180910390fd5b61072f60006110a8565b565b600081600281111561073f57fe5b9050919050565b600460009054906101000a900460ff1681565b600160009054906101000a900473ffffffffffffffffffffffffffffffffffffffff1681565b6000809054906101000a900473ffffffffffffffffffffffffffffffffffffffff1673ffffffffffffffffffffffffffffffffffffffff16632f54bf6e336040518263ffffffff1660e01b8152600401808273ffffffffffffffffffffffffffffffffffffffff1673ffffffffffffffffffffffffffffffffffffffff16815260200191505060206040518083038186803b15801561081d57600080fd5b505afa158015610831573d6000803e3d6000fd5b505050506040513d602081101561084757600080fd5b81019080805190602001909291905050506108ad576040517f08c379a000000000000000000000000000000000000000000000000000000000815260040180806020018281038252602481526020018061147a6024913960400191505060405180910390fd5b60008060009054906101000a900473ffffffffffffffffffffffffffffffffffffffff1673ffffffffffffffffffffffffffffffffffffffff1663e51c94fb6040518163ffffffff1660e01b815260040160206040518083038186803b15801561091657600080fd5b505afa15801561092a573d6000803e3d6000fd5b505050506040513d602081101561094057600080fd5b8101908080519060200190929190505050905060016002828161095f57fe5b04016007600061096f6001610731565b815260200190815260200160002054106109905761098b6112bf565b6109ca565b60016002828161099c57fe5b0401600760006109ac6002610731565b815260200190815260200160002054106109c9576109c8611350565b5b5b7f0439a4a365ca8457bf0ff8f4d5db67d74fef20bf9cb6513a56395edbd5af8b51600460009054906101000a900460ff1660405180826002811115610a0b57fe5b60ff16815260200191505060405180910390a150565b6000809054906101000a900473ffffffffffffffffffffffffffffffffffffffff1673ffffffffffffffffffffffffffffffffffffffff16632f54bf6e336040518263ffffffff1660e01b8152600401808273ffffffffffffffffffffffffffffffffffffffff1673ffffffffffffffffffffffffffffffffffffffff16815260200191505060206040518083038186803b158015610abf57600080fd5b505afa158015610ad3573d6000803e3d6000fd5b505050506040513d6020811015610ae957600080fd5b8101908080519060200190929190505050610b4f576040517f08c379a000000000000000000000000000000000000000000000000000000000815260040180806020018281038252602481526020018061147a6024913960400191505060405180910390fd5b610b57611350565b7f0439a4a365ca8457bf0ff8f4d5db67d74fef20bf9cb6513a56395edbd5af8b51600460009054906101000a900460ff1660405180826002811115610b9857fe5b60ff16815260200191505060405180910390a1565b6000600460009054906101000a900460ff16905090565b6000600560008373ffffffffffffffffffffffffffffffffffffffff1673ffffffffffffffffffffffffffffffffffffffff16815260200190815260200160002060009054906101000a900460ff169050919050565b6000600654905090565b6000809054906101000a900473ffffffffffffffffffffffffffffffffffffffff1673ffffffffffffffffffffffffffffffffffffffff163373ffffffffffffffffffffffffffffffffffffffff1614610cc9576040517f08c379a000000000000000000000000000000000000000000000000000000000815260040180806020018281038252602a815260200180611450602a913960400191505060405180910390fd5b600060025414610d24576040517f08c379a000000000000000000000000000000000000000000000000000000000815260040180806020018281038252602d8152602001806113fb602d913960400191505060405180910390fd5b34600281905550565b600060076000610d3d6002610731565b815260200190815260200160002054905090565b60056020528060005260406000206000915054906101000a900460ff1681565b60038054600181600116156101000203166002900480601f016020809104026020016040519081016040528092919081815260200182805460018160011615610100020316600290048015610e075780601f10610ddc57610100808354040283529160200191610e07565b820191906000526020600020905b815481529060010190602001808311610dea57829003601f168201915b505050505081565b6000809054906101000a900473ffffffffffffffffffffffffffffffffffffffff1673ffffffffffffffffffffffffffffffffffffffff1663cee2a9cf336040518263ffffffff1660e01b8152600401808273ffffffffffffffffffffffffffffffffffffffff1673ffffffffffffffffffffffffffffffffffffffff16815260200191505060206040518083038186803b158015610ead57600080fd5b505afa158015610ec1573d6000803e3d6000fd5b505050506040513d6020811015610ed757600080fd5b8101908080519060200190929190505050610f3d576040517f08c379a00000000000000000000000000000000000000000000000000000000081526004018080602001828103825260288152602001806114286028913960400191505060405180910390fd5b610f4760026110a8565b565b6000809054906101000a900473ffffffffffffffffffffffffffffffffffffffff1681565b6000809054906101000a900473ffffffffffffffffffffffffffffffffffffffff1673ffffffffffffffffffffffffffffffffffffffff1663cee2a9cf336040518263ffffffff1660e01b8152600401808273ffffffffffffffffffffffffffffffffffffffff1673ffffffffffffffffffffffffffffffffffffffff16815260200191505060206040518083038186803b15801561100c57600080fd5b505afa158015611020573d6000803e3d6000fd5b505050506040513d602081101561103657600080fd5b810190808051906020019092919050505061109c576040517f08c379a00000000000000000000000000000000000000000000000000000000081526004018080602001828103825260288152602001806114286028913960400191505060405180910390fd5b6110a660016110a8565b565b600060028111156110b557fe5b600560003373ffffffffffffffffffffffffffffffffffffffff1673ffffffffffffffffffffffffffffffffffffffff16815260200190815260200160002060009054906101000a900460ff16600281111561110d57fe5b1415611155576006600081548092919060010191905055506007600061113283610731565b8152602001908152602001600020600081548092919060010191905055506111f9565b600760006111ae600560003373ffffffffffffffffffffffffffffffffffffffff1673ffffffffffffffffffffffffffffffffffffffff16815260200190815260200160002060009054906101000a900460ff16610731565b81526020019081526020016000206000815480929190600190039190505550600760006111da83610731565b8152602001908152602001600020600081548092919060010191905055505b80600560003373ffffffffffffffffffffffffffffffffffffffff1673ffffffffffffffffffffffffffffffffffffffff16815260200190815260200160002060006101000a81548160ff0219169083600281111561125457fe5b02179055507f3b7f4bea1b2462212751e8a9d23ca2a37a1abf7ff729725e224314f1c190c99133604051808273ffffffffffffffffffffffffffffffffffffffff1673ffffffffffffffffffffffffffffffffffffffff16815260200191505060405180910390a150565b600160009054906101000a900473ffffffffffffffffffffffffffffffffffffffff1673ffffffffffffffffffffffffffffffffffffffff166108fc6002549081150290604051600060405180830381858888f19350505050158015611329573d6000803e3d6000fd5b506001600460006101000a81548160ff0219169083600281111561134957fe5b0217905550565b6002600460006101000a81548160ff0219169083600281111561136f57fe5b02179055506000809054906101000a900473ffffffffffffffffffffffffffffffffffffffff1673ffffffffffffffffffffffffffffffffffffffff1663590e1ae36002546040518263ffffffff1660e01b81526004016000604051808303818588803b1580156113df57600080fd5b505af11580156113f3573d6000803e3d6000fd5b505050505056fe46756e6374696f6e2063616e2062652063616c6c6564206f6e6c7920617420696e697469616c697a6174696f6e46756e6374696f6e2063616e2062652063616c6c6564206f6e6c7920627920696e766573746f727346756e6374696f6e2063616e2062652063616c6c6564206f6e6c79206279207468652070726f6a65637446756e6374696f6e2063616e2062652063616c6c6564206f6e6c79206279206f776e6572a265627a7a723158202e212c834f3ade0b12e8ceca43ebbbf151b65f9a77f80347beab26140c7c199764736f6c63430005100032",
  "source": "// SPDX-License-Identifier: AFL-1.1\npragma solidity ^0.5.16;\n\nimport \"./Project.sol\";\n\ncontract Transfer {\n    enum VoteType {NONE, AYE, NAY}\n    enum TransferResult {PENDING, SUCCESS, REJECTED}\n\n    // origin project\n    Project public project;\n    // recipient for this money\n    address payable public recipient;\n    // value of transfer\n    uint256 public value;\n    // Reason of transfer\n    string public reason;\n\n    TransferResult public result;\n\n    // Mapping of votes\n    mapping(address => VoteType) public votes;\n    uint256 public voteNumber;\n    // mapping(VoteType => uint) public voteByCategory;\n    mapping(uint256 => uint256) public voteByCategory;\n\n    event TransferStatus(TransferResult result);\n    event NewVote(address caster);\n\n    function getValueFor(VoteType voteCategory) public pure returns (uint256) {\n        return uint256(voteCategory);\n    }\n\n    /*\n        Transfer Constructor\n        @param _project     the project that initiates the transfer\n        @param _recipient   account to receive the transfer\n        @param _reason      string stating the transfer reason\n        @param _investors   list of all investors able to vote\n     */\n    constructor(\n        Project _project,\n        address payable _recipient,\n        string memory _reason\n    ) public {\n        project = _project;\n        recipient = _recipient;\n        reason = _reason;\n        value = 0;\n        voteNumber = 0;\n        result = TransferResult.PENDING;\n    }\n\n    modifier onlyProject {\n        require(\n            msg.sender == address(project),\n            \"Function can be called only by the project\"\n        );\n        _;\n    }\n\n    modifier onlyInvestor {\n        require(\n            project.isInvestor(msg.sender),\n            \"Function can be called only by investors\"\n        );\n        _;\n    }\n\n    modifier onlyOwner {\n        require(\n            project.isOwner(msg.sender),\n            \"Function can be called only by owner\"\n        );\n        _;\n    }\n\n    function deposit() public payable onlyProject {\n        require(value == 0, \"Function can be called only at initialization\");\n        value = msg.value;\n    }\n\n    /*\n        Cast vote\n        @param _vote        vote type to cast\n    */\n    function vote(VoteType _vote) private {\n        if (votes[msg.sender] == VoteType.NONE) {\n            voteNumber++;\n            voteByCategory[getValueFor(_vote)]++;\n        } else {\n            voteByCategory[getValueFor(votes[msg.sender])]--;\n            voteByCategory[getValueFor(_vote)]++;\n        }\n        votes[msg.sender] = _vote;\n        emit NewVote(msg.sender);\n    }\n\n    function checkVotes() public onlyOwner {\n        // Verifica daca au votat mai mult de 50% din investitori.\n        uint investorNumber = project.getNumberOfInvestors();\n        if (\n            voteByCategory[getValueFor(VoteType.AYE)] >=\n            ( investorNumber / 2 + 1)\n        ) {\n            doTransfer();\n        }\n        else if (\n            voteByCategory[getValueFor(VoteType.NAY)] >=\n            ( investorNumber / 2 + 1)\n        ) {\n            doRefund();\n        }\n\n        emit TransferStatus(result);\n    }\n\n    function doTransfer() private {\n        // Transfera banii din Transfer la recipient\n        recipient.transfer(value);\n        result = TransferResult.SUCCESS;\n    }\n\n    function doRefund() private {\n        result = TransferResult.REJECTED;\n        // address(uint160(address(project))).transfer(value);\n        project.refund.value(value)();\n        // selfdestruct(address(uint160(address(project))));\n    }\n\n    /*\n        Cast aye vote (pro vote)\n    */\n    function aye() external onlyInvestor {\n        vote(VoteType.AYE);\n    }\n\n    /*\n        Cast aye vote (pro vote)\n    */\n    function nay() external onlyInvestor {\n        vote(VoteType.NAY);\n    }\n\n    function destroy() external onlyOwner {\n        doRefund();\n        emit TransferStatus(result);\n    }\n\n    /*\n        Remove vote\n    */\n    function removeVote() external onlyInvestor {\n        vote(VoteType.NONE);\n    }\n\n    function getAyeVotes() public view returns(uint) {\n        return voteByCategory[getValueFor(VoteType.AYE)];\n    }\n\n    function getNayVotes() public view returns(uint) {\n        return voteByCategory[getValueFor(VoteType.NAY)];\n    }\n\n    function getNumberOfVotes() public view returns(uint) {\n        return voteNumber;\n    }\n\n    function getTransferResult() public view returns(TransferResult) {\n        return result;\n    }\n\n    function getVote(address _account) public view returns(VoteType) {\n        return votes[_account];\n    }\n}\n",
  "sourcePath": "/Users/braduveronik/Movies/untitled folder/crawler_py/blockchain_license_thesis/KickInvest/blockchain/contracts/contracts/Transfer.sol",
  "compiler": {
    "name": "solc",
    "version": "0.5.16+commit.9c3226ce.Emscripten.clang"
  },
  "schemaVersion": "3.0.23",
  "updatedAt": "2020-07-18T17:52:57.687Z",
  "devdoc": {
    "methods": {}
  },
  "userdoc": {
    "methods": {}
  }
}